{
  "_format": "hh-sol-artifact-1",
  "contractName": "AIAgentWallet",
  "sourceName": "contracts/sahaai.sol",
  "abi": [
    {
      "inputs": [
        {
          "internalType": "address",
          "name": "_aiAgent",
          "type": "address"
        },
        {
          "internalType": "string",
          "name": "name",
          "type": "string"
        },
        {
          "internalType": "string",
          "name": "symbol",
          "type": "string"
        },
        {
          "internalType": "string",
          "name": "version",
          "type": "string"
        },
        {
          "internalType": "uint256",
          "name": "_subscriptionFee",
          "type": "uint256"
        }
      ],
      "stateMutability": "nonpayable",
      "type": "constructor"
    },
    {
      "inputs": [],
      "name": "ECDSAInvalidSignature",
      "type": "error"
    },
    {
      "inputs": [
        {
          "internalType": "uint256",
          "name": "length",
          "type": "uint256"
        }
      ],
      "name": "ECDSAInvalidSignatureLength",
      "type": "error"
    },
    {
      "inputs": [
        {
          "internalType": "bytes32",
          "name": "s",
          "type": "bytes32"
        }
      ],
      "name": "ECDSAInvalidSignatureS",
      "type": "error"
    },
    {
      "inputs": [
        {
          "internalType": "address",
          "name": "sender",
          "type": "address"
        },
        {
          "internalType": "uint256",
          "name": "tokenId",
          "type": "uint256"
        },
        {
          "internalType": "address",
          "name": "owner",
          "type": "address"
        }
      ],
      "name": "ERC721IncorrectOwner",
      "type": "error"
    },
    {
      "inputs": [
        {
          "internalType": "address",
          "name": "operator",
          "type": "address"
        },
        {
          "internalType": "uint256",
          "name": "tokenId",
          "type": "uint256"
        }
      ],
      "name": "ERC721InsufficientApproval",
      "type": "error"
    },
    {
      "inputs": [
        {
          "internalType": "address",
          "name": "approver",
          "type": "address"
        }
      ],
      "name": "ERC721InvalidApprover",
      "type": "error"
    },
    {
      "inputs": [
        {
          "internalType": "address",
          "name": "operator",
          "type": "address"
        }
      ],
      "name": "ERC721InvalidOperator",
      "type": "error"
    },
    {
      "inputs": [
        {
          "internalType": "address",
          "name": "owner",
          "type": "address"
        }
      ],
      "name": "ERC721InvalidOwner",
      "type": "error"
    },
    {
      "inputs": [
        {
          "internalType": "address",
          "name": "receiver",
          "type": "address"
        }
      ],
      "name": "ERC721InvalidReceiver",
      "type": "error"
    },
    {
      "inputs": [
        {
          "internalType": "address",
          "name": "sender",
          "type": "address"
        }
      ],
      "name": "ERC721InvalidSender",
      "type": "error"
    },
    {
      "inputs": [
        {
          "internalType": "uint256",
          "name": "tokenId",
          "type": "uint256"
        }
      ],
      "name": "ERC721NonexistentToken",
      "type": "error"
    },
    {
      "inputs": [],
      "name": "InvalidShortString",
      "type": "error"
    },
    {
      "inputs": [
        {
          "internalType": "address",
          "name": "owner",
          "type": "address"
        }
      ],
      "name": "OwnableInvalidOwner",
      "type": "error"
    },
    {
      "inputs": [
        {
          "internalType": "address",
          "name": "account",
          "type": "address"
        }
      ],
      "name": "OwnableUnauthorizedAccount",
      "type": "error"
    },
    {
      "inputs": [
        {
          "internalType": "string",
          "name": "str",
          "type": "string"
        }
      ],
      "name": "StringTooLong",
      "type": "error"
    },
    {
      "anonymous": false,
      "inputs": [
        {
          "indexed": true,
          "internalType": "address",
          "name": "owner",
          "type": "address"
        },
        {
          "indexed": true,
          "internalType": "address",
          "name": "approved",
          "type": "address"
        },
        {
          "indexed": true,
          "internalType": "uint256",
          "name": "tokenId",
          "type": "uint256"
        }
      ],
      "name": "Approval",
      "type": "event"
    },
    {
      "anonymous": false,
      "inputs": [
        {
          "indexed": true,
          "internalType": "address",
          "name": "owner",
          "type": "address"
        },
        {
          "indexed": true,
          "internalType": "address",
          "name": "operator",
          "type": "address"
        },
        {
          "indexed": false,
          "internalType": "bool",
          "name": "approved",
          "type": "bool"
        }
      ],
      "name": "ApprovalForAll",
      "type": "event"
    },
    {
      "anonymous": false,
      "inputs": [
        {
          "indexed": true,
          "internalType": "address",
          "name": "user",
          "type": "address"
        },
        {
          "indexed": false,
          "internalType": "uint256",
          "name": "amount",
          "type": "uint256"
        }
      ],
      "name": "DepositETH",
      "type": "event"
    },
    {
      "anonymous": false,
      "inputs": [
        {
          "indexed": true,
          "internalType": "address",
          "name": "user",
          "type": "address"
        },
        {
          "indexed": true,
          "internalType": "address",
          "name": "token",
          "type": "address"
        },
        {
          "indexed": false,
          "internalType": "uint256",
          "name": "amount",
          "type": "uint256"
        }
      ],
      "name": "DepositToken",
      "type": "event"
    },
    {
      "anonymous": false,
      "inputs": [],
      "name": "EIP712DomainChanged",
      "type": "event"
    },
    {
      "anonymous": false,
      "inputs": [
        {
          "indexed": true,
          "internalType": "address",
          "name": "user",
          "type": "address"
        },
        {
          "indexed": false,
          "internalType": "string",
          "name": "identifier",
          "type": "string"
        }
      ],
      "name": "IdentifierRegistered",
      "type": "event"
    },
    {
      "anonymous": false,
      "inputs": [
        {
          "indexed": true,
          "internalType": "address",
          "name": "user",
          "type": "address"
        },
        {
          "indexed": false,
          "internalType": "uint256",
          "name": "tokenId",
          "type": "uint256"
        },
        {
          "indexed": false,
          "internalType": "string",
          "name": "tokenURI",
          "type": "string"
        }
      ],
      "name": "NFTMinted",
      "type": "event"
    },
    {
      "anonymous": false,
      "inputs": [
        {
          "indexed": true,
          "internalType": "address",
          "name": "previousOwner",
          "type": "address"
        },
        {
          "indexed": true,
          "internalType": "address",
          "name": "newOwner",
          "type": "address"
        }
      ],
      "name": "OwnershipTransferred",
      "type": "event"
    },
    {
      "anonymous": false,
      "inputs": [
        {
          "indexed": true,
          "internalType": "address",
          "name": "user",
          "type": "address"
        },
        {
          "indexed": false,
          "internalType": "address",
          "name": "recipient",
          "type": "address"
        },
        {
          "indexed": false,
          "internalType": "uint256",
          "name": "amount",
          "type": "uint256"
        }
      ],
      "name": "SpendETH",
      "type": "event"
    },
    {
      "anonymous": false,
      "inputs": [
        {
          "indexed": true,
          "internalType": "address",
          "name": "user",
          "type": "address"
        },
        {
          "indexed": false,
          "internalType": "address",
          "name": "token",
          "type": "address"
        },
        {
          "indexed": false,
          "internalType": "address",
          "name": "recipient",
          "type": "address"
        },
        {
          "indexed": false,
          "internalType": "uint256",
          "name": "amount",
          "type": "uint256"
        }
      ],
      "name": "SpendToken",
      "type": "event"
    },
    {
      "anonymous": false,
      "inputs": [
        {
          "indexed": true,
          "internalType": "address",
          "name": "user",
          "type": "address"
        },
        {
          "indexed": false,
          "internalType": "uint256",
          "name": "expiry",
          "type": "uint256"
        }
      ],
      "name": "Subscribed",
      "type": "event"
    },
    {
      "anonymous": false,
      "inputs": [
        {
          "indexed": true,
          "internalType": "address",
          "name": "from",
          "type": "address"
        },
        {
          "indexed": true,
          "internalType": "address",
          "name": "to",
          "type": "address"
        },
        {
          "indexed": true,
          "internalType": "uint256",
          "name": "tokenId",
          "type": "uint256"
        }
      ],
      "name": "Transfer",
      "type": "event"
    },
    {
      "anonymous": false,
      "inputs": [
        {
          "indexed": true,
          "internalType": "address",
          "name": "user",
          "type": "address"
        }
      ],
      "name": "Unsubscribed",
      "type": "event"
    },
    {
      "inputs": [
        {
          "internalType": "address",
          "name": "",
          "type": "address"
        }
      ],
      "name": "addressesToIdentifiers",
      "outputs": [
        {
          "internalType": "string",
          "name": "",
          "type": "string"
        }
      ],
      "stateMutability": "view",
      "type": "function"
    },
    {
      "inputs": [],
      "name": "aiAgent",
      "outputs": [
        {
          "internalType": "address",
          "name": "",
          "type": "address"
        }
      ],
      "stateMutability": "view",
      "type": "function"
    },
    {
      "inputs": [
        {
          "internalType": "address",
          "name": "to",
          "type": "address"
        },
        {
          "internalType": "uint256",
          "name": "tokenId",
          "type": "uint256"
        }
      ],
      "name": "approve",
      "outputs": [],
      "stateMutability": "nonpayable",
      "type": "function"
    },
    {
      "inputs": [
        {
          "internalType": "address",
          "name": "owner",
          "type": "address"
        }
      ],
      "name": "balanceOf",
      "outputs": [
        {
          "internalType": "uint256",
          "name": "",
          "type": "uint256"
        }
      ],
      "stateMutability": "view",
      "type": "function"
    },
    {
      "inputs": [
        {
          "internalType": "address",
          "name": "user",
          "type": "address"
        }
      ],
      "name": "checkSubscription",
      "outputs": [
        {
          "internalType": "bool",
          "name": "",
          "type": "bool"
        },
        {
          "internalType": "uint256",
          "name": "",
          "type": "uint256"
        }
      ],
      "stateMutability": "view",
      "type": "function"
    },
    {
      "inputs": [],
      "name": "depositETH",
      "outputs": [],
      "stateMutability": "payable",
      "type": "function"
    },
    {
      "inputs": [
        {
          "internalType": "address",
          "name": "token",
          "type": "address"
        },
        {
          "internalType": "uint256",
          "name": "amount",
          "type": "uint256"
        }
      ],
      "name": "depositToken",
      "outputs": [],
      "stateMutability": "nonpayable",
      "type": "function"
    },
    {
      "inputs": [],
      "name": "eip712Domain",
      "outputs": [
        {
          "internalType": "bytes1",
          "name": "fields",
          "type": "bytes1"
        },
        {
          "internalType": "string",
          "name": "name",
          "type": "string"
        },
        {
          "internalType": "string",
          "name": "version",
          "type": "string"
        },
        {
          "internalType": "uint256",
          "name": "chainId",
          "type": "uint256"
        },
        {
          "internalType": "address",
          "name": "verifyingContract",
          "type": "address"
        },
        {
          "internalType": "bytes32",
          "name": "salt",
          "type": "bytes32"
        },
        {
          "internalType": "uint256[]",
          "name": "extensions",
          "type": "uint256[]"
        }
      ],
      "stateMutability": "view",
      "type": "function"
    },
    {
      "inputs": [
        {
          "internalType": "address",
          "name": "",
          "type": "address"
        }
      ],
      "name": "ethBalances",
      "outputs": [
        {
          "internalType": "uint256",
          "name": "",
          "type": "uint256"
        }
      ],
      "stateMutability": "view",
      "type": "function"
    },
    {
      "inputs": [
        {
          "internalType": "address",
          "name": "user",
          "type": "address"
        },
        {
          "internalType": "address",
          "name": "token",
          "type": "address"
        },
        {
          "internalType": "address",
          "name": "recipient",
          "type": "address"
        },
        {
          "internalType": "uint256",
          "name": "amount",
          "type": "uint256"
        },
        {
          "internalType": "string",
          "name": "message_hash",
          "type": "string"
        },
        {
          "internalType": "bytes",
          "name": "signature",
          "type": "bytes"
        }
      ],
      "name": "executeTransaction",
      "outputs": [],
      "stateMutability": "nonpayable",
      "type": "function"
    },
    {
      "inputs": [
        {
          "internalType": "uint256",
          "name": "tokenId",
          "type": "uint256"
        }
      ],
      "name": "getApproved",
      "outputs": [
        {
          "internalType": "address",
          "name": "",
          "type": "address"
        }
      ],
      "stateMutability": "view",
      "type": "function"
    },
    {
      "inputs": [
        {
          "internalType": "string",
          "name": "",
          "type": "string"
        }
      ],
      "name": "identifiersToAddresses",
      "outputs": [
        {
          "internalType": "address",
          "name": "",
          "type": "address"
        }
      ],
      "stateMutability": "view",
      "type": "function"
    },
    {
      "inputs": [
        {
          "internalType": "string",
          "name": "",
          "type": "string"
        }
      ],
      "name": "identifiersToToken",
      "outputs": [
        {
          "internalType": "address",
          "name": "",
          "type": "address"
        }
      ],
      "stateMutability": "view",
      "type": "function"
    },
    {
      "inputs": [
        {
          "internalType": "address",
          "name": "owner",
          "type": "address"
        },
        {
          "internalType": "address",
          "name": "operator",
          "type": "address"
        }
      ],
      "name": "isApprovedForAll",
      "outputs": [
        {
          "internalType": "bool",
          "name": "",
          "type": "bool"
        }
      ],
      "stateMutability": "view",
      "type": "function"
    },
    {
      "inputs": [
        {
          "internalType": "string",
          "name": "identifier",
          "type": "string"
        }
      ],
      "name": "isIdentifierAvailable",
      "outputs": [
        {
          "internalType": "bool",
          "name": "",
          "type": "bool"
        }
      ],
      "stateMutability": "view",
      "type": "function"
    },
    {
      "inputs": [
        {
          "internalType": "string",
          "name": "name",
          "type": "string"
        }
      ],
      "name": "isTokenIdentifierAvailable",
      "outputs": [
        {
          "internalType": "bool",
          "name": "",
          "type": "bool"
        }
      ],
      "stateMutability": "view",
      "type": "function"
    },
    {
      "inputs": [
        {
          "internalType": "address",
          "name": "user",
          "type": "address"
        },
        {
          "internalType": "string",
          "name": "uri",
          "type": "string"
        }
      ],
      "name": "mintNFT",
      "outputs": [],
      "stateMutability": "nonpayable",
      "type": "function"
    },
    {
      "inputs": [],
      "name": "name",
      "outputs": [
        {
          "internalType": "string",
          "name": "",
          "type": "string"
        }
      ],
      "stateMutability": "view",
      "type": "function"
    },
    {
      "inputs": [],
      "name": "nextTokenId",
      "outputs": [
        {
          "internalType": "uint256",
          "name": "",
          "type": "uint256"
        }
      ],
      "stateMutability": "view",
      "type": "function"
    },
    {
      "inputs": [],
      "name": "owner",
      "outputs": [
        {
          "internalType": "address",
          "name": "",
          "type": "address"
        }
      ],
      "stateMutability": "view",
      "type": "function"
    },
    {
      "inputs": [
        {
          "internalType": "uint256",
          "name": "tokenId",
          "type": "uint256"
        }
      ],
      "name": "ownerOf",
      "outputs": [
        {
          "internalType": "address",
          "name": "",
          "type": "address"
        }
      ],
      "stateMutability": "view",
      "type": "function"
    },
    {
      "inputs": [
        {
          "internalType": "string",
          "name": "identifier",
          "type": "string"
        }
      ],
      "name": "registerIdentifier",
      "outputs": [],
      "stateMutability": "nonpayable",
      "type": "function"
    },
    {
      "inputs": [
        {
          "internalType": "string",
          "name": "name",
          "type": "string"
        },
        {
          "internalType": "address",
          "name": "token",
          "type": "address"
        }
      ],
      "name": "registerTokenIdentifier",
      "outputs": [],
      "stateMutability": "nonpayable",
      "type": "function"
    },
    {
      "inputs": [],
      "name": "renounceOwnership",
      "outputs": [],
      "stateMutability": "nonpayable",
      "type": "function"
    },
    {
      "inputs": [
        {
          "internalType": "address",
          "name": "from",
          "type": "address"
        },
        {
          "internalType": "address",
          "name": "to",
          "type": "address"
        },
        {
          "internalType": "uint256",
          "name": "tokenId",
          "type": "uint256"
        }
      ],
      "name": "safeTransferFrom",
      "outputs": [],
      "stateMutability": "nonpayable",
      "type": "function"
    },
    {
      "inputs": [
        {
          "internalType": "address",
          "name": "from",
          "type": "address"
        },
        {
          "internalType": "address",
          "name": "to",
          "type": "address"
        },
        {
          "internalType": "uint256",
          "name": "tokenId",
          "type": "uint256"
        },
        {
          "internalType": "bytes",
          "name": "data",
          "type": "bytes"
        }
      ],
      "name": "safeTransferFrom",
      "outputs": [],
      "stateMutability": "nonpayable",
      "type": "function"
    },
    {
      "inputs": [
        {
          "internalType": "address",
          "name": "_aiAgent",
          "type": "address"
        }
      ],
      "name": "setAIAgent",
      "outputs": [],
      "stateMutability": "nonpayable",
      "type": "function"
    },
    {
      "inputs": [
        {
          "internalType": "address",
          "name": "operator",
          "type": "address"
        },
        {
          "internalType": "bool",
          "name": "approved",
          "type": "bool"
        }
      ],
      "name": "setApprovalForAll",
      "outputs": [],
      "stateMutability": "nonpayable",
      "type": "function"
    },
    {
      "inputs": [],
      "name": "subscribe",
      "outputs": [],
      "stateMutability": "payable",
      "type": "function"
    },
    {
      "inputs": [
        {
          "internalType": "address",
          "name": "",
          "type": "address"
        }
      ],
      "name": "subscribers",
      "outputs": [
        {
          "internalType": "uint256",
          "name": "expiry",
          "type": "uint256"
        },
        {
          "internalType": "bool",
          "name": "active",
          "type": "bool"
        }
      ],
      "stateMutability": "view",
      "type": "function"
    },
    {
      "inputs": [],
      "name": "subscriptionDuration",
      "outputs": [
        {
          "internalType": "uint256",
          "name": "",
          "type": "uint256"
        }
      ],
      "stateMutability": "view",
      "type": "function"
    },
    {
      "inputs": [],
      "name": "subscriptionFee",
      "outputs": [
        {
          "internalType": "uint256",
          "name": "",
          "type": "uint256"
        }
      ],
      "stateMutability": "view",
      "type": "function"
    },
    {
      "inputs": [
        {
          "internalType": "bytes4",
          "name": "interfaceId",
          "type": "bytes4"
        }
      ],
      "name": "supportsInterface",
      "outputs": [
        {
          "internalType": "bool",
          "name": "",
          "type": "bool"
        }
      ],
      "stateMutability": "view",
      "type": "function"
    },
    {
      "inputs": [],
      "name": "symbol",
      "outputs": [
        {
          "internalType": "string",
          "name": "",
          "type": "string"
        }
      ],
      "stateMutability": "view",
      "type": "function"
    },
    {
      "inputs": [
        {
          "internalType": "string",
          "name": "str",
          "type": "string"
        }
      ],
      "name": "toLower",
      "outputs": [
        {
          "internalType": "string",
          "name": "",
          "type": "string"
        }
      ],
      "stateMutability": "pure",
      "type": "function"
    },
    {
      "inputs": [
        {
          "internalType": "address",
          "name": "",
          "type": "address"
        },
        {
          "internalType": "address",
          "name": "",
          "type": "address"
        }
      ],
      "name": "tokenBalances",
      "outputs": [
        {
          "internalType": "uint256",
          "name": "",
          "type": "uint256"
        }
      ],
      "stateMutability": "view",
      "type": "function"
    },
    {
      "inputs": [
        {
          "internalType": "address",
          "name": "",
          "type": "address"
        }
      ],
      "name": "tokenToIdentifiers",
      "outputs": [
        {
          "internalType": "string",
          "name": "",
          "type": "string"
        }
      ],
      "stateMutability": "view",
      "type": "function"
    },
    {
      "inputs": [
        {
          "internalType": "uint256",
          "name": "tokenId",
          "type": "uint256"
        }
      ],
      "name": "tokenURI",
      "outputs": [
        {
          "internalType": "string",
          "name": "",
          "type": "string"
        }
      ],
      "stateMutability": "view",
      "type": "function"
    },
    {
      "inputs": [
        {
          "internalType": "uint256",
          "name": "",
          "type": "uint256"
        }
      ],
      "name": "tokenURIs",
      "outputs": [
        {
          "internalType": "string",
          "name": "",
          "type": "string"
        }
      ],
      "stateMutability": "view",
      "type": "function"
    },
    {
      "inputs": [
        {
          "internalType": "address",
          "name": "from",
          "type": "address"
        },
        {
          "internalType": "address",
          "name": "to",
          "type": "address"
        },
        {
          "internalType": "uint256",
          "name": "tokenId",
          "type": "uint256"
        }
      ],
      "name": "transferFrom",
      "outputs": [],
      "stateMutability": "nonpayable",
      "type": "function"
    },
    {
      "inputs": [
        {
          "internalType": "address",
          "name": "newOwner",
          "type": "address"
        }
      ],
      "name": "transferOwnership",
      "outputs": [],
      "stateMutability": "nonpayable",
      "type": "function"
    },
    {
      "inputs": [],
      "name": "unsubscribe",
      "outputs": [],
      "stateMutability": "nonpayable",
      "type": "function"
    },
    {
      "inputs": [
        {
          "internalType": "uint256",
          "name": "_newFee",
          "type": "uint256"
        }
      ],
      "name": "updateSubscriptionFee",
      "outputs": [],
      "stateMutability": "nonpayable",
      "type": "function"
    },
    {
      "inputs": [],
      "name": "withdrawFunds",
      "outputs": [],
      "stateMutability": "nonpayable",
      "type": "function"
    },
    {
      "stateMutability": "payable",
      "type": "receive"
    }
  ],
  "bytecode": "0x61016060405262278d00600c553480156200001957600080fd5b5060405162003719380380620037198339810160408190526200003c9162000311565b8382818533806200006857604051631e4fbdf760e01b8152600060048201526024015b60405180910390fd5b620000738162000178565b5060016200008283826200045c565b5060026200009182826200045c565b50620000a391508390506007620001c8565b61012052620000b4816008620001c8565b61014052815160208084019190912060e052815190820120610100524660a0526200014260e05161010051604080517f8b73c3c69bb8fe3d512ecc4cf759cc79239f7b179b0ffacaa9a75d522b39400f60208201529081019290925260608201524660808201523060a082015260009060c00160405160208183030381529060405280519060200120905090565b60805250503060c052600980546001600160a01b0319166001600160a01b039690961695909517909455505050600b5562000582565b600080546001600160a01b038381166001600160a01b0319831681178455604051919092169283917f8be0079c531659141344cd1fd0a4f28419497f9722a3daafe3b4186f6b6457e09190a35050565b6000602083511015620001e857620001e08362000201565b9050620001fb565b81620001f584826200045c565b5060ff90505b92915050565b600080829050601f815111156200022f578260405163305a27a960e01b81526004016200005f919062000528565b80516200023c826200055d565b179392505050565b634e487b7160e01b600052604160045260246000fd5b60005b83811015620002775781810151838201526020016200025d565b50506000910152565b600082601f8301126200029257600080fd5b81516001600160401b0380821115620002af57620002af62000244565b604051601f8301601f19908116603f01168101908282118183101715620002da57620002da62000244565b81604052838152866020858801011115620002f457600080fd5b620003078460208301602089016200025a565b9695505050505050565b600080600080600060a086880312156200032a57600080fd5b85516001600160a01b03811681146200034257600080fd5b60208701519095506001600160401b03808211156200036057600080fd5b6200036e89838a0162000280565b955060408801519150808211156200038557600080fd5b6200039389838a0162000280565b94506060880151915080821115620003aa57600080fd5b50620003b98882890162000280565b925050608086015190509295509295909350565b600181811c90821680620003e257607f821691505b6020821081036200040357634e487b7160e01b600052602260045260246000fd5b50919050565b601f8211156200045757600081815260208120601f850160051c81016020861015620004325750805b601f850160051c820191505b8181101562000453578281556001016200043e565b5050505b505050565b81516001600160401b0381111562000478576200047862000244565b6200049081620004898454620003cd565b8462000409565b602080601f831160018114620004c85760008415620004af5750858301515b600019600386901b1c1916600185901b17855562000453565b600085815260208120601f198616915b82811015620004f957888601518255948401946001909101908401620004d8565b5085821015620005185787850151600019600388901b60f8161c191681555b5050505050600190811b01905550565b6020815260008251806020840152620005498160408501602087016200025a565b601f01601f19169190910160400192915050565b80516020808301519190811015620004035760001960209190910360031b1b16919050565b60805160a05160c05160e05161010051610120516101405161313c620005dd6000396000612082015260006120500152600061246a015260006124420152600061239d015260006123c7015260006123f1015261313c6000f3fe60806040526004361061026b5760003560e01c806375794a3c11610144578063b88d4fde116100b6578063e985e9c51161007a578063e985e9c514610807578063eacabe1414610827578063f1ab38d814610847578063f2fde38b14610888578063f6326fb3146108a8578063fcae4484146108b057600080fd5b8063b88d4fde14610767578063b97ff11414610787578063c87b56dd146107a7578063d7720df3146107c7578063e49e870d146107e757600080fd5b80639416b423116101085780639416b423146106b257806395d89b41146106d2578063a22cb465146106e7578063a6ae332d14610707578063a6d5b73214610727578063ab6d899b1461074757600080fd5b806375794a3c146106385780637a94a6331461064e57806384b0196e146106645780638da5cb5b1461068c5780638f449a05146106aa57600080fd5b80633cfba0e3116101dd5780635745ae28116101a15780635745ae28146105575780636352211e146105a35780636c8b703f146105c35780636ebe941b146105e357806370a0823114610603578063715018a61461062357600080fd5b80633cfba0e31461047b57806341888612146104a857806342842e0e146104c85780634dbf6c5a146104e85780634f62647e1461052057600080fd5b806313f570511161022f57806313f57051146103a55780631fe6caed146103c557806323b872dd1461040657806324600fc314610426578063247a29fe1461043b578063338b5dea1461045b57600080fd5b806301ffc9a7146102d057806306fdde0314610305578063081812fc14610327578063095ea7b31461035f5780630aa0a1751461038157600080fd5b366102cb57336000908152600d60205260408120805434929061028f9084906128fe565b909155505060405134815233907fced5d8bf10823804603bba066e4f53aa6e8f6f4be68bf0114cf7a0e52183e4e99060200160405180910390a2005b600080fd5b3480156102dc57600080fd5b506102f06102eb366004612927565b6108c5565b60405190151581526020015b60405180910390f35b34801561031157600080fd5b5061031a610917565b6040516102fc919061299b565b34801561033357600080fd5b506103476103423660046129ae565b6109a9565b6040516001600160a01b0390911681526020016102fc565b34801561036b57600080fd5b5061037f61037a3660046129e3565b6109d2565b005b34801561038d57600080fd5b50610397600b5481565b6040519081526020016102fc565b3480156103b157600080fd5b5061037f6103c0366004612ab0565b6109e1565b3480156103d157600080fd5b506103476103e0366004612b4e565b80516020818301810180516010825292820191909301209152546001600160a01b031681565b34801561041257600080fd5b5061037f610421366004612b83565b610af3565b34801561043257600080fd5b5061037f610b7e565b34801561044757600080fd5b5061037f610456366004612b4e565b610bc3565b34801561046757600080fd5b5061037f6104763660046129e3565b610cca565b34801561048757600080fd5b50610397610496366004612bbf565b600d6020526000908152604090205481565b3480156104b457600080fd5b506102f06104c3366004612b4e565b610f53565b3480156104d457600080fd5b5061037f6104e3366004612b83565b610f8e565b3480156104f457600080fd5b50610397610503366004612bda565b600e60209081526000928352604080842090915290825290205481565b34801561052c57600080fd5b5061054061053b366004612bbf565b610fae565b6040805192151583526020830191909152016102fc565b34801561056357600080fd5b5061058e610572366004612bbf565b6014602052600090815260409020805460019091015460ff1682565b604080519283529015156020830152016102fc565b3480156105af57600080fd5b506103476105be3660046129ae565b610ffe565b3480156105cf57600080fd5b5061031a6105de3660046129ae565b611009565b3480156105ef57600080fd5b5061037f6105fe366004612bbf565b6110a3565b34801561060f57600080fd5b5061039761061e366004612bbf565b6110cd565b34801561062f57600080fd5b5061037f611115565b34801561064457600080fd5b50610397600a5481565b34801561065a57600080fd5b50610397600c5481565b34801561067057600080fd5b50610679611129565b6040516102fc9796959493929190612c0d565b34801561069857600080fd5b506000546001600160a01b0316610347565b61037f61116f565b3480156106be57600080fd5b5061031a6106cd366004612b4e565b611298565b3480156106de57600080fd5b5061031a611376565b3480156106f357600080fd5b5061037f610702366004612cb1565b611385565b34801561071357600080fd5b5061031a610722366004612bbf565b611390565b34801561073357600080fd5b50600954610347906001600160a01b031681565b34801561075357600080fd5b506102f0610762366004612b4e565b6113a9565b34801561077357600080fd5b5061037f610782366004612ce8565b6113b7565b34801561079357600080fd5b5061037f6107a23660046129ae565b6113ce565b3480156107b357600080fd5b5061031a6107c23660046129ae565b6113db565b3480156107d357600080fd5b5061031a6107e2366004612bbf565b6114f4565b3480156107f357600080fd5b5061037f610802366004612d50565b61150d565b34801561081357600080fd5b506102f0610822366004612bda565b6116af565b34801561083357600080fd5b5061037f610842366004612d95565b6116dd565b34801561085357600080fd5b50610347610862366004612b4e565b80516020818301810180516012825292820191909301209152546001600160a01b031681565b34801561089457600080fd5b5061037f6108a3366004612bbf565b6117a2565b61037f6117dd565b3480156108bc57600080fd5b5061037f611833565b60006001600160e01b031982166380ac58cd60e01b14806108f657506001600160e01b03198216635b5e139f60e01b145b8061091157506301ffc9a760e01b6001600160e01b03198316145b92915050565b60606001805461092690612de3565b80601f016020809104026020016040519081016040528092919081815260200182805461095290612de3565b801561099f5780601f106109745761010080835404028352916020019161099f565b820191906000526020600020905b81548152906001019060200180831161098257829003601f168201915b5050505050905090565b60006109b4826118fc565b506000828152600560205260409020546001600160a01b0316610911565b6109dd828233611935565b5050565b6009546001600160a01b0316331480610a0457506000546001600160a01b031633145b610a295760405162461bcd60e51b8152600401610a2090612e1d565b60405180910390fd5b604080518082019091526001600160a01b0387168152602081018390526000610a59610a5483611942565b6119bb565b90506000610a6782856119e8565b9050886001600160a01b0316816001600160a01b031614610abe5760405162461bcd60e51b8152602060048201526011602482015270496e76616c6964207369676e617475726560781b6044820152606401610a20565b6001600160a01b038816610adc57610ad7898888611a12565b610ae8565b610ae889898989611b80565b505050505050505050565b6001600160a01b038216610b1d57604051633250574960e11b815260006004820152602401610a20565b6000610b2a838333611ed3565b9050836001600160a01b0316816001600160a01b031614610b78576040516364283d7b60e01b81526001600160a01b0380861660048301526024820184905282166044820152606401610a20565b50505050565b610b86611fcc565b600080546040516001600160a01b03909116914780156108fc02929091818181858888f19350505050158015610bc0573d6000803e3d6000fd5b50565b6000610bce82611298565b9050610bd9816113a9565b610c255760405162461bcd60e51b815260206004820152601960248201527f4964656e74696669657220616c726561647920696e20757365000000000000006044820152606401610a20565b336010610c3183611298565b604051610c3e9190612e4c565b908152604080516020928190038301902080546001600160a01b0319166001600160a01b039490941693909317909255336000908152601190915220610c848282612eb6565b50336001600160a01b03167f317174c3501391e9905f05af88391d3ff33078a6d283f662842ad794ca5c67b082604051610cbe919061299b565b60405180910390a25050565b60008111610d1a5760405162461bcd60e51b815260206004820181905260248201527f416d6f756e74206d7573742062652067726561746572207468616e207a65726f6044820152606401610a20565b6001600160a01b038216610d685760405162461bcd60e51b8152602060048201526015602482015274496e76616c696420746f6b656e206164647265737360581b6044820152606401610a20565b604051636eb1769f60e11b81523360048201523060248201526000906001600160a01b0384169063dd62ed3e90604401602060405180830381865afa158015610db5573d6000803e3d6000fd5b505050506040513d601f19601f82011682018060405250810190610dd99190612f76565b905081811015610e2b5760405162461bcd60e51b815260206004820152601760248201527f546f6b656e20616c6c6f77616e636520746f6f206c6f770000000000000000006044820152606401610a20565b6040516323b872dd60e01b8152336004820152306024820152604481018390526000906001600160a01b038516906323b872dd906064016020604051808303816000875af1158015610e81573d6000803e3d6000fd5b505050506040513d601f19601f82011682018060405250810190610ea59190612f8f565b905080610ee65760405162461bcd60e51b815260206004820152600f60248201526e151c985b9cd9995c8819985a5b1959608a1b6044820152606401610a20565b336000908152600e602090815260408083206001600160a01b038816845290915281208054859290610f199084906128fe565b90915550506040518390309033907fddf252ad1be2c89b69c2b068fc378daa952ba7f163c4a11628f55a4df523b3ef90600090a450505050565b6000806012610f6184611298565b604051610f6e9190612e4c565b908152604051908190036020019020546001600160a01b03161492915050565b610fa9838383604051806020016040528060008152506113b7565b505050565b6001600160a01b03811660009081526014602090815260408083208151808301909252805482526001015460ff16158015928201839052839290610ff25750805142105b90519094909350915050565b6000610911826118fc565b600f602052600090815260409020805461102290612de3565b80601f016020809104026020016040519081016040528092919081815260200182805461104e90612de3565b801561109b5780601f106110705761010080835404028352916020019161109b565b820191906000526020600020905b81548152906001019060200180831161107e57829003601f168201915b505050505081565b6110ab611fcc565b600980546001600160a01b0319166001600160a01b0392909216919091179055565b60006001600160a01b0382166110f9576040516322718ad960e21b815260006004820152602401610a20565b506001600160a01b031660009081526004602052604090205490565b61111d611fcc565b6111276000611ff9565b565b60006060806000806000606061113d612049565b61114561207b565b60408051600080825260208201909252600f60f81b9b939a50919850469750309650945092509050565b600b5434146111c05760405162461bcd60e51b815260206004820152601a60248201527f496e636f727265637420737562736372697074696f6e206665650000000000006044820152606401610a20565b33600090815260146020526040902054421115611229576040518060400160405280600c54426111f091906128fe565b81526001602091820181905233600090815260148352604090208351815592909101519101805460ff1916911515919091179055611251565b600c54336000908152601460205260408120805490919061124b9084906128fe565b90915550505b336000818152601460209081526040918290205491519182527f4b90d6788928d63c1821907a6a8b95f40d26562d8fe41b105f7489db9966dfcb91015b60405180910390a2565b60608160005b815181101561136f57604160f81b8282815181106112be576112be612fac565b01602001516001600160f81b031916108015906112ff5750605a60f81b8282815181106112ed576112ed612fac565b01602001516001600160f81b03191611155b1561135d5781818151811061131657611316612fac565b602001015160f81c60f81b60f81c60206113309190612fc2565b60f81b82828151811061134557611345612fac565b60200101906001600160f81b031916908160001a9053505b8061136781612fdb565b91505061129e565b5092915050565b60606002805461092690612de3565b6109dd3383836120a8565b6013602052600090815260409020805461102290612de3565b6000806010610f6184611298565b6113c2848484610af3565b610b7884848484612147565b6113d6611fcc565b600b55565b606060006113e883610ffe565b6001600160a01b0316036114565760405162461bcd60e51b815260206004820152602f60248201527f4552433732314d657461646174613a2055524920717565727920666f72206e6f60448201526e3732bc34b9ba32b73a103a37b5b2b760891b6064820152608401610a20565b6000828152600f60205260409020805461146f90612de3565b80601f016020809104026020016040519081016040528092919081815260200182805461149b90612de3565b80156114e85780601f106114bd576101008083540402835291602001916114e8565b820191906000526020600020905b8154815290600101906020018083116114cb57829003601f168201915b50505050509050919050565b6011602052600090815260409020805461102290612de3565b6009546001600160a01b031633148061153057506000546001600160a01b031633145b61154c5760405162461bcd60e51b8152600401610a2090612e1d565b600061155783611298565b905061156281610f53565b6115ae5760405162461bcd60e51b815260206004820152601e60248201527f746f6b656e206964656e746966696572206e6f7420617661696c61626c6500006044820152606401610a20565b6040805160008082526020808301808552835190206001600160a01b038716835260139091529083902090926115e49201612ff4565b60405160208183030381529060405280519060200120146116475760405162461bcd60e51b815260206004820152601860248201527f746f6b656e20616c7265616479207265676973746572656400000000000000006044820152606401610a20565b6001600160a01b03821660009081526013602052604090206116698282612eb6565b508160128260405161167b9190612e4c565b90815260405190819003602001902080546001600160a01b03929092166001600160a01b0319909216919091179055505050565b6001600160a01b03918216600090815260066020908152604080832093909416825291909152205460ff1690565b6009546001600160a01b031633148061170057506000546001600160a01b031633145b61171c5760405162461bcd60e51b8152600401610a2090612e1d565b61172882600a54612270565b600a546000908152600f602052604090206117438282612eb6565b50816001600160a01b03167fd35bb95e09c04b219e35047ce7b7b300e3384264ef84a40456943dbc0fc17c14600a548360405161178192919061306a565b60405180910390a2600a805490600061179983612fdb565b91905055505050565b6117aa611fcc565b6001600160a01b0381166117d457604051631e4fbdf760e01b815260006004820152602401610a20565b610bc081611ff9565b336000908152600d6020526040812080543492906117fc9084906128fe565b909155505060405134815233907fced5d8bf10823804603bba066e4f53aa6e8f6f4be68bf0114cf7a0e52183e4e99060200161128e565b3360009081526014602052604090206001015460ff16801561186357503360009081526014602052604090205442105b6118ba5760405162461bcd60e51b815260206004820152602260248201527f537562736372697074696f6e2065787069726564206f72206e6f742061637469604482015261766560f01b6064820152608401610a20565b33600081815260146020526040808220600101805460ff19169055517fae563681ccc696fae58fe830f401bc9c043a43ddb9f7c2830b32c3c70d9966e79190a2565b6000818152600360205260408120546001600160a01b03168061091157604051637e27328960e01b815260048101849052602401610a20565b610fa9838383600161228a565b805160208083015180519082012060405160009361199e937f8bd4b6ed26700279903baaf93f6f82e8d596ab9d6dfc28b0eba604829c2c800c939192019283526001600160a01b03919091166020830152604082015260600190565b604051602081830303815290604052805190602001209050919050565b60006109116119c8612390565b8360405161190160f01b8152600281019290925260228201526042902090565b6000806000806119f886866124bb565b925092509250611a088282612508565b5090949350505050565b82336001600160a01b0382161480611a3457506009546001600160a01b031633145b611a715760405162461bcd60e51b815260206004820152600e60248201526d139bdd08185d5d1a1bdc9a5e995960921b6044820152606401610a20565b6001600160a01b0384166000908152600d6020526040902054821115611ad05760405162461bcd60e51b8152602060048201526014602482015273496e73756666696369656e742062616c616e636560601b6044820152606401610a20565b6001600160a01b0384166000908152600d602052604081208054849290611af8908490613083565b90915550506040516001600160a01b0384169083156108fc029084906000818181858888f19350505050158015611b33573d6000803e3d6000fd5b50604080516001600160a01b038581168252602082018590528616917f3a51b8b688064ddc412af09a2c576a3d52b2e996d889a79e523a5ad5e75a7ea0910160405180910390a250505050565b83336001600160a01b0382161480611ba257506009546001600160a01b031633145b611bdf5760405162461bcd60e51b815260206004820152600e60248201526d139bdd08185d5d1a1bdc9a5e995960921b6044820152606401610a20565b6001600160a01b038086166000908152600e6020908152604080832093881683529290522054821115611c4b5760405162461bcd60e51b8152602060048201526014602482015273496e73756666696369656e742062616c616e636560601b6044820152606401610a20565b604051636eb1769f60e11b81523360048201523060248201526000906001600160a01b0386169063dd62ed3e90604401602060405180830381865afa158015611c98573d6000803e3d6000fd5b505050506040513d601f19601f82011682018060405250810190611cbc9190612f76565b905082811015611d8e5760405163095ea7b360e01b8152306004820152602481018490526001600160a01b0386169063095ea7b3906044016020604051808303816000875af1158015611d13573d6000803e3d6000fd5b505050506040513d601f19601f82011682018060405250810190611d379190612f8f565b611d8e5760405162461bcd60e51b815260206004820152602260248201527f417070726f76616c20666f7220746f6b656e207472616e73666572206661696c604482015261195960f21b6064820152608401610a20565b60405163a9059cbb60e01b81526001600160a01b0385811660048301526024820185905286169063a9059cbb906044016020604051808303816000875af1158015611ddd573d6000803e3d6000fd5b505050506040513d601f19601f82011682018060405250810190611e019190612f8f565b611e3f5760405162461bcd60e51b815260206004820152600f60248201526e151c985b9cd9995c8819985a5b1959608a1b6044820152606401610a20565b6001600160a01b038087166000908152600e6020908152604080832093891683529290529081208054859290611e76908490613083565b9091555050604080516001600160a01b0387811682528681166020830152918101859052908716907f93a05987ef9e476982e037c3e13e479ed028691421290f34eb3461cad84c21e89060600160405180910390a2505050505050565b6000828152600360205260408120546001600160a01b0390811690831615611f0057611f008184866125c1565b6001600160a01b03811615611f3e57611f1d60008560008061228a565b6001600160a01b038116600090815260046020526040902080546000190190555b6001600160a01b03851615611f6d576001600160a01b0385166000908152600460205260409020805460010190555b60008481526003602052604080822080546001600160a01b0319166001600160a01b0389811691821790925591518793918516917fddf252ad1be2c89b69c2b068fc378daa952ba7f163c4a11628f55a4df523b3ef91a4949350505050565b6000546001600160a01b031633146111275760405163118cdaa760e01b8152336004820152602401610a20565b600080546001600160a01b038381166001600160a01b0319831681178455604051919092169283917f8be0079c531659141344cd1fd0a4f28419497f9722a3daafe3b4186f6b6457e09190a35050565b60606120767f00000000000000000000000000000000000000000000000000000000000000006007612625565b905090565b60606120767f00000000000000000000000000000000000000000000000000000000000000006008612625565b6001600160a01b0382166120da57604051630b61174360e31b81526001600160a01b0383166004820152602401610a20565b6001600160a01b03838116600081815260066020908152604080832094871680845294825291829020805460ff191686151590811790915591519182527f17307eab39ab6107e8899845ad3d59bd9653f200f220920489ca2b5937696c31910160405180910390a3505050565b6001600160a01b0383163b15610b7857604051630a85bd0160e11b81526001600160a01b0384169063150b7a0290612189903390889087908790600401613096565b6020604051808303816000875af19250505080156121c4575060408051601f3d908101601f191682019092526121c1918101906130d3565b60015b61222d573d8080156121f2576040519150601f19603f3d011682016040523d82523d6000602084013e6121f7565b606091505b50805160000361222557604051633250574960e11b81526001600160a01b0385166004820152602401610a20565b805181602001fd5b6001600160e01b03198116630a85bd0160e11b1461226957604051633250574960e11b81526001600160a01b0385166004820152602401610a20565b5050505050565b6109dd8282604051806020016040528060008152506126d0565b808061229e57506001600160a01b03821615155b156123605760006122ae846118fc565b90506001600160a01b038316158015906122da5750826001600160a01b0316816001600160a01b031614155b80156122ed57506122eb81846116af565b155b156123165760405163a9fbf51f60e01b81526001600160a01b0384166004820152602401610a20565b811561235e5783856001600160a01b0316826001600160a01b03167f8c5be1e5ebec7d5bd14f71427d1e84f3dd0314c0f7b2291e5b200ac8c7c3b92560405160405180910390a45b505b5050600090815260056020526040902080546001600160a01b0319166001600160a01b0392909216919091179055565b6000306001600160a01b037f0000000000000000000000000000000000000000000000000000000000000000161480156123e957507f000000000000000000000000000000000000000000000000000000000000000046145b1561241357507f000000000000000000000000000000000000000000000000000000000000000090565b612076604080517f8b73c3c69bb8fe3d512ecc4cf759cc79239f7b179b0ffacaa9a75d522b39400f60208201527f0000000000000000000000000000000000000000000000000000000000000000918101919091527f000000000000000000000000000000000000000000000000000000000000000060608201524660808201523060a082015260009060c00160405160208183030381529060405280519060200120905090565b600080600083516041036124f55760208401516040850151606086015160001a6124e7888285856126e7565b955095509550505050612501565b50508151600091506002905b9250925092565b600082600381111561251c5761251c6130f0565b03612525575050565b6001826003811115612539576125396130f0565b036125575760405163f645eedf60e01b815260040160405180910390fd5b600282600381111561256b5761256b6130f0565b0361258c5760405163fce698f760e01b815260048101829052602401610a20565b60038260038111156125a0576125a06130f0565b036109dd576040516335e2f38360e21b815260048101829052602401610a20565b6125cc8383836127b6565b610fa9576001600160a01b0383166125fa57604051637e27328960e01b815260048101829052602401610a20565b60405163177e802f60e01b81526001600160a01b038316600482015260248101829052604401610a20565b606060ff831461263f576126388361281c565b9050610911565b81805461264b90612de3565b80601f016020809104026020016040519081016040528092919081815260200182805461267790612de3565b80156126c45780601f10612699576101008083540402835291602001916126c4565b820191906000526020600020905b8154815290600101906020018083116126a757829003601f168201915b50505050509050610911565b6126da838361285b565b610fa96000848484612147565b600080807f7fffffffffffffffffffffffffffffff5d576e7357a4501ddfe92f46681b20a084111561272257506000915060039050826127ac565b604080516000808252602082018084528a905260ff891692820192909252606081018790526080810186905260019060a0016020604051602081039080840390855afa158015612776573d6000803e3d6000fd5b5050604051601f1901519150506001600160a01b0381166127a2575060009250600191508290506127ac565b9250600091508190505b9450945094915050565b60006001600160a01b038316158015906128145750826001600160a01b0316846001600160a01b031614806127f057506127f084846116af565b8061281457506000828152600560205260409020546001600160a01b038481169116145b949350505050565b60606000612829836128c0565b604080516020808252818301909252919250600091906020820181803683375050509182525060208101929092525090565b6001600160a01b03821661288557604051633250574960e11b815260006004820152602401610a20565b600061289383836000611ed3565b90506001600160a01b03811615610fa9576040516339e3563760e11b815260006004820152602401610a20565b600060ff8216601f81111561091157604051632cd44ac360e21b815260040160405180910390fd5b634e487b7160e01b600052601160045260246000fd5b80820180821115610911576109116128e8565b6001600160e01b031981168114610bc057600080fd5b60006020828403121561293957600080fd5b813561294481612911565b9392505050565b60005b8381101561296657818101518382015260200161294e565b50506000910152565b6000815180845261298781602086016020860161294b565b601f01601f19169290920160200192915050565b602081526000612944602083018461296f565b6000602082840312156129c057600080fd5b5035919050565b80356001600160a01b03811681146129de57600080fd5b919050565b600080604083850312156129f657600080fd5b6129ff836129c7565b946020939093013593505050565b634e487b7160e01b600052604160045260246000fd5b600082601f830112612a3457600080fd5b813567ffffffffffffffff80821115612a4f57612a4f612a0d565b604051601f8301601f19908116603f01168101908282118183101715612a7757612a77612a0d565b81604052838152866020858801011115612a9057600080fd5b836020870160208301376000602085830101528094505050505092915050565b60008060008060008060c08789031215612ac957600080fd5b612ad2876129c7565b9550612ae0602088016129c7565b9450612aee604088016129c7565b935060608701359250608087013567ffffffffffffffff80821115612b1257600080fd5b612b1e8a838b01612a23565b935060a0890135915080821115612b3457600080fd5b50612b4189828a01612a23565b9150509295509295509295565b600060208284031215612b6057600080fd5b813567ffffffffffffffff811115612b7757600080fd5b61281484828501612a23565b600080600060608486031215612b9857600080fd5b612ba1846129c7565b9250612baf602085016129c7565b9150604084013590509250925092565b600060208284031215612bd157600080fd5b612944826129c7565b60008060408385031215612bed57600080fd5b612bf6836129c7565b9150612c04602084016129c7565b90509250929050565b60ff60f81b881681526000602060e081840152612c2d60e084018a61296f565b8381036040850152612c3f818a61296f565b606085018990526001600160a01b038816608086015260a0850187905284810360c0860152855180825283870192509083019060005b81811015612c9157835183529284019291840191600101612c75565b50909c9b505050505050505050505050565b8015158114610bc057600080fd5b60008060408385031215612cc457600080fd5b612ccd836129c7565b91506020830135612cdd81612ca3565b809150509250929050565b60008060008060808587031215612cfe57600080fd5b612d07856129c7565b9350612d15602086016129c7565b925060408501359150606085013567ffffffffffffffff811115612d3857600080fd5b612d4487828801612a23565b91505092959194509250565b60008060408385031215612d6357600080fd5b823567ffffffffffffffff811115612d7a57600080fd5b612d8685828601612a23565b925050612c04602084016129c7565b60008060408385031215612da857600080fd5b612db1836129c7565b9150602083013567ffffffffffffffff811115612dcd57600080fd5b612dd985828601612a23565b9150509250929050565b600181811c90821680612df757607f821691505b602082108103612e1757634e487b7160e01b600052602260045260246000fd5b50919050565b60208082526015908201527413db9b1e481052481059d95b9d08185b1b1bddd959605a1b604082015260600190565b60008251612e5e81846020870161294b565b9190910192915050565b601f821115610fa957600081815260208120601f850160051c81016020861015612e8f5750805b601f850160051c820191505b81811015612eae57828155600101612e9b565b505050505050565b815167ffffffffffffffff811115612ed057612ed0612a0d565b612ee481612ede8454612de3565b84612e68565b602080601f831160018114612f195760008415612f015750858301515b600019600386901b1c1916600185901b178555612eae565b600085815260208120601f198616915b82811015612f4857888601518255948401946001909101908401612f29565b5085821015612f665787850151600019600388901b60f8161c191681555b5050505050600190811b01905550565b600060208284031215612f8857600080fd5b5051919050565b600060208284031215612fa157600080fd5b815161294481612ca3565b634e487b7160e01b600052603260045260246000fd5b60ff8181168382160190811115610911576109116128e8565b600060018201612fed57612fed6128e8565b5060010190565b600080835461300281612de3565b6001828116801561301a576001811461302f5761305e565b60ff198416875282151583028701945061305e565b8760005260208060002060005b858110156130555781548a82015290840190820161303c565b50505082870194505b50929695505050505050565b828152604060208201526000612814604083018461296f565b81810381811115610911576109116128e8565b6001600160a01b03858116825284166020820152604081018390526080606082018190526000906130c99083018461296f565b9695505050505050565b6000602082840312156130e557600080fd5b815161294481612911565b634e487b7160e01b600052602160045260246000fdfea264697066735822122049e3e652765f076bbb48d517585d017eaf3ace3b974ab73fa6a1c61bd1dd65c664736f6c63430008140033",
  "linkReferences": {},
  "deployedLinkReferences": {}
}