{
  "address": "0x05765D29F2E0FA54D5e4EB06C7A95f28a6eB142e",
  "abi": [
    {
      "inputs": [
        {
          "internalType": "address",
          "name": "_aiAgent",
          "type": "address"
        }
      ],
      "stateMutability": "nonpayable",
      "type": "constructor"
    },
    {
      "inputs": [
        {
          "internalType": "address",
          "name": "owner",
          "type": "address"
        }
      ],
      "name": "OwnableInvalidOwner",
      "type": "error"
    },
    {
      "inputs": [
        {
          "internalType": "address",
          "name": "account",
          "type": "address"
        }
      ],
      "name": "OwnableUnauthorizedAccount",
      "type": "error"
    },
    {
      "anonymous": false,
      "inputs": [
        {
          "indexed": true,
          "internalType": "address",
          "name": "oldAgent",
          "type": "address"
        },
        {
          "indexed": true,
          "internalType": "address",
          "name": "newAgent",
          "type": "address"
        }
      ],
      "name": "AIAgentUpdated",
      "type": "event"
    },
    {
      "anonymous": false,
      "inputs": [
        {
          "indexed": true,
          "internalType": "address",
          "name": "previousOwner",
          "type": "address"
        },
        {
          "indexed": true,
          "internalType": "address",
          "name": "newOwner",
          "type": "address"
        }
      ],
      "name": "OwnershipTransferred",
      "type": "event"
    },
    {
      "anonymous": false,
      "inputs": [
        {
          "indexed": true,
          "internalType": "address",
          "name": "by",
          "type": "address"
        }
      ],
      "name": "Paused",
      "type": "event"
    },
    {
      "anonymous": false,
      "inputs": [
        {
          "indexed": true,
          "internalType": "address",
          "name": "by",
          "type": "address"
        }
      ],
      "name": "Unpaused",
      "type": "event"
    },
    {
      "stateMutability": "payable",
      "type": "fallback"
    },
    {
      "inputs": [],
      "name": "aiAgent",
      "outputs": [
        {
          "internalType": "address",
          "name": "",
          "type": "address"
        }
      ],
      "stateMutability": "view",
      "type": "function"
    },
    {
      "inputs": [],
      "name": "isPaused",
      "outputs": [
        {
          "internalType": "bool",
          "name": "",
          "type": "bool"
        }
      ],
      "stateMutability": "view",
      "type": "function"
    },
    {
      "inputs": [],
      "name": "owner",
      "outputs": [
        {
          "internalType": "address",
          "name": "",
          "type": "address"
        }
      ],
      "stateMutability": "view",
      "type": "function"
    },
    {
      "inputs": [],
      "name": "pause",
      "outputs": [],
      "stateMutability": "nonpayable",
      "type": "function"
    },
    {
      "inputs": [],
      "name": "renounceOwnership",
      "outputs": [],
      "stateMutability": "nonpayable",
      "type": "function"
    },
    {
      "inputs": [
        {
          "internalType": "address",
          "name": "newAgent",
          "type": "address"
        }
      ],
      "name": "setAIAgent",
      "outputs": [],
      "stateMutability": "nonpayable",
      "type": "function"
    },
    {
      "inputs": [
        {
          "internalType": "address",
          "name": "newOwner",
          "type": "address"
        }
      ],
      "name": "transferOwnership",
      "outputs": [],
      "stateMutability": "nonpayable",
      "type": "function"
    },
    {
      "inputs": [],
      "name": "unpause",
      "outputs": [],
      "stateMutability": "nonpayable",
      "type": "function"
    },
    {
      "stateMutability": "payable",
      "type": "receive"
    }
  ],
  "transactionHash": "0xa17c737ec738d05feff05b02ce98f4b66153e94d9cee2616454c625cb584b63e",
  "args": [
    "0x1018156dF390667aA90147a2Bbb993c3833ECea7"
  ],
  "numDeployments": 1,
  "solcInputHash": "b0b02d8cc8f3accaf255d9b7fb956d91",
  "bytecode": "0x608060405234801561001057600080fd5b506040516105f73803806105f783398101604081905261002f9161012b565b338061005657604051631e4fbdf760e01b8152600060048201526024015b60405180910390fd5b61005f816100db565b506001600160a01b0381166100b65760405162461bcd60e51b815260206004820152601f60248201527f4149204167656e7420616464726573732063616e6e6f74206265207a65726f00604482015260640161004d565b600180546001600160a01b0319166001600160a01b039290921691909117905561015b565b600080546001600160a01b038381166001600160a01b0319831681178455604051919092169283917f8be0079c531659141344cd1fd0a4f28419497f9722a3daafe3b4186f6b6457e09190a35050565b60006020828403121561013d57600080fd5b81516001600160a01b038116811461015457600080fd5b9392505050565b61048d8061016a6000396000f3fe60806040526004361061007f5760003560e01c80638da5cb5b1161004e5780638da5cb5b14610173578063a6d5b732146101aa578063b187bd26146101ca578063f2fde38b146101f4576100d1565b80633f4ba83a146101125780636ebe941b14610129578063715018a6146101495780638456cb591461015e576100d1565b366100d15760405162461bcd60e51b815260206004820152601d60248201527f446972656374207061796d656e7473206e6f7420737570706f7274656400000060448201526064015b60405180910390fd5b60405162461bcd60e51b815260206004820152601660248201527511985b1b189858dac81b9bdd081cdd5c1c1bdc9d195960521b60448201526064016100c8565b34801561011e57600080fd5b50610127610214565b005b34801561013557600080fd5b50610127610144366004610427565b610256565b34801561015557600080fd5b50610127610310565b34801561016a57600080fd5b50610127610324565b34801561017f57600080fd5b506000546001600160a01b03165b6040516001600160a01b0390911681526020015b60405180910390f35b3480156101b657600080fd5b5060015461018d906001600160a01b031681565b3480156101d657600080fd5b50600154600160a01b900460ff1660405190151581526020016101a1565b34801561020057600080fd5b5061012761020f366004610427565b61036c565b61021c6103aa565b6001805460ff60a01b1916905560405133907f5db9ee0a495bf2e6ff9c91a7834c1ba4fdd244a5e8aa4e537bd38aeae4b073aa90600090a2565b61025e6103aa565b6001600160a01b0381166102b45760405162461bcd60e51b815260206004820152601860248201527f496e76616c6964204149204167656e742061646472657373000000000000000060448201526064016100c8565b6001546040516001600160a01b038084169216907f0ac42006b88adb1efcf4e9c3898bf1f0ad6b79559ababbfdf9358497d5ccbac290600090a3600180546001600160a01b0319166001600160a01b0392909216919091179055565b6103186103aa565b61032260006103d7565b565b61032c6103aa565b6001805460ff60a01b1916600160a01b17905560405133907f62e78cea01bee320cd4e420270b5ea74000d11b0c9f74754ebdbfc544b05a25890600090a2565b6103746103aa565b6001600160a01b03811661039e57604051631e4fbdf760e01b8152600060048201526024016100c8565b6103a7816103d7565b50565b6000546001600160a01b031633146103225760405163118cdaa760e01b81523360048201526024016100c8565b600080546001600160a01b038381166001600160a01b0319831681178455604051919092169283917f8be0079c531659141344cd1fd0a4f28419497f9722a3daafe3b4186f6b6457e09190a35050565b60006020828403121561043957600080fd5b81356001600160a01b038116811461045057600080fd5b939250505056fea2646970667358221220e1e9618e4f85d5b7e6e0e56aa688234ad2988e2c643e6ea28b6ebfd8401bec5a64736f6c63430008140033",
  "devdoc": {
    "errors": {
      "OwnableInvalidOwner(address)": [
        {
          "details": "The owner is not a valid owner account. (eg. `address(0)`)"
        }
      ],
      "OwnableUnauthorizedAccount(address)": [
        {
          "details": "The caller account is not authorized to perform an operation."
        }
      ]
    },
    "kind": "dev",
    "methods": {
      "owner()": {
        "details": "Returns the address of the current owner."
      },
      "renounceOwnership()": {
        "details": "Leaves the contract without owner. It will not be possible to call `onlyOwner` functions. Can only be called by the current owner. NOTE: Renouncing ownership will leave the contract without an owner, thereby disabling any functionality that is only available to the owner."
      },
      "transferOwnership(address)": {
        "details": "Transfers ownership of the contract to a new account (`newOwner`). Can only be called by the current owner."
      }
    },
    "version": 1
  },
  "userdoc": {
    "kind": "user",
    "methods": {},
    "version": 1
  },
  "storageLayout": {
    "storage": [
      {
        "astId": 8,
        "contract": "contracts/AccessManager.sol:AccessManager",
        "label": "_owner",
        "offset": 0,
        "slot": "0",
        "type": "t_address"
      },
      {
        "astId": 7385,
        "contract": "contracts/AccessManager.sol:AccessManager",
        "label": "aiAgent",
        "offset": 0,
        "slot": "1",
        "type": "t_address"
      },
      {
        "astId": 7387,
        "contract": "contracts/AccessManager.sol:AccessManager",
        "label": "paused",
        "offset": 20,
        "slot": "1",
        "type": "t_bool"
      }
    ],
    "types": {
      "t_address": {
        "encoding": "inplace",
        "label": "address",
        "numberOfBytes": "20"
      },
      "t_bool": {
        "encoding": "inplace",
        "label": "bool",
        "numberOfBytes": "1"
      }
    }
  }
}