{
  "address": "0x9aCa0FFA9E1F86C8cFB230b83E9aBD2a5fA6AFb2",
  "abi": [
    {
      "inputs": [
        {
          "internalType": "string",
          "name": "name",
          "type": "string"
        },
        {
          "internalType": "string",
          "name": "symbol",
          "type": "string"
        },
        {
          "internalType": "address",
          "name": "subscriptionManagerAddress",
          "type": "address"
        },
        {
          "internalType": "address",
          "name": "signatureManagerAddress",
          "type": "address"
        },
        {
          "internalType": "address",
          "name": "tokenManagerAddress",
          "type": "address"
        },
        {
          "internalType": "address",
          "name": "accessManagerAddress",
          "type": "address"
        }
      ],
      "stateMutability": "nonpayable",
      "type": "constructor"
    },
    {
      "inputs": [
        {
          "internalType": "address",
          "name": "sender",
          "type": "address"
        },
        {
          "internalType": "uint256",
          "name": "tokenId",
          "type": "uint256"
        },
        {
          "internalType": "address",
          "name": "owner",
          "type": "address"
        }
      ],
      "name": "ERC721IncorrectOwner",
      "type": "error"
    },
    {
      "inputs": [
        {
          "internalType": "address",
          "name": "operator",
          "type": "address"
        },
        {
          "internalType": "uint256",
          "name": "tokenId",
          "type": "uint256"
        }
      ],
      "name": "ERC721InsufficientApproval",
      "type": "error"
    },
    {
      "inputs": [
        {
          "internalType": "address",
          "name": "approver",
          "type": "address"
        }
      ],
      "name": "ERC721InvalidApprover",
      "type": "error"
    },
    {
      "inputs": [
        {
          "internalType": "address",
          "name": "operator",
          "type": "address"
        }
      ],
      "name": "ERC721InvalidOperator",
      "type": "error"
    },
    {
      "inputs": [
        {
          "internalType": "address",
          "name": "owner",
          "type": "address"
        }
      ],
      "name": "ERC721InvalidOwner",
      "type": "error"
    },
    {
      "inputs": [
        {
          "internalType": "address",
          "name": "receiver",
          "type": "address"
        }
      ],
      "name": "ERC721InvalidReceiver",
      "type": "error"
    },
    {
      "inputs": [
        {
          "internalType": "address",
          "name": "sender",
          "type": "address"
        }
      ],
      "name": "ERC721InvalidSender",
      "type": "error"
    },
    {
      "inputs": [
        {
          "internalType": "uint256",
          "name": "tokenId",
          "type": "uint256"
        }
      ],
      "name": "ERC721NonexistentToken",
      "type": "error"
    },
    {
      "inputs": [
        {
          "internalType": "address",
          "name": "owner",
          "type": "address"
        }
      ],
      "name": "OwnableInvalidOwner",
      "type": "error"
    },
    {
      "inputs": [
        {
          "internalType": "address",
          "name": "account",
          "type": "address"
        }
      ],
      "name": "OwnableUnauthorizedAccount",
      "type": "error"
    },
    {
      "inputs": [],
      "name": "ReentrancyGuardReentrantCall",
      "type": "error"
    },
    {
      "anonymous": false,
      "inputs": [
        {
          "indexed": true,
          "internalType": "address",
          "name": "owner",
          "type": "address"
        },
        {
          "indexed": true,
          "internalType": "address",
          "name": "approved",
          "type": "address"
        },
        {
          "indexed": true,
          "internalType": "uint256",
          "name": "tokenId",
          "type": "uint256"
        }
      ],
      "name": "Approval",
      "type": "event"
    },
    {
      "anonymous": false,
      "inputs": [
        {
          "indexed": true,
          "internalType": "address",
          "name": "owner",
          "type": "address"
        },
        {
          "indexed": true,
          "internalType": "address",
          "name": "operator",
          "type": "address"
        },
        {
          "indexed": false,
          "internalType": "bool",
          "name": "approved",
          "type": "bool"
        }
      ],
      "name": "ApprovalForAll",
      "type": "event"
    },
    {
      "anonymous": false,
      "inputs": [
        {
          "indexed": true,
          "internalType": "address",
          "name": "owner",
          "type": "address"
        },
        {
          "indexed": false,
          "internalType": "uint256",
          "name": "amount",
          "type": "uint256"
        }
      ],
      "name": "FundsWithdrawn",
      "type": "event"
    },
    {
      "anonymous": false,
      "inputs": [
        {
          "indexed": true,
          "internalType": "address",
          "name": "user",
          "type": "address"
        },
        {
          "indexed": false,
          "internalType": "string",
          "name": "identifier",
          "type": "string"
        }
      ],
      "name": "IdentifierRegistered",
      "type": "event"
    },
    {
      "anonymous": false,
      "inputs": [
        {
          "indexed": true,
          "internalType": "address",
          "name": "user",
          "type": "address"
        },
        {
          "indexed": false,
          "internalType": "uint256",
          "name": "tokenId",
          "type": "uint256"
        },
        {
          "indexed": false,
          "internalType": "string",
          "name": "tokenURI",
          "type": "string"
        }
      ],
      "name": "NFTMinted",
      "type": "event"
    },
    {
      "anonymous": false,
      "inputs": [
        {
          "indexed": true,
          "internalType": "address",
          "name": "previousOwner",
          "type": "address"
        },
        {
          "indexed": true,
          "internalType": "address",
          "name": "newOwner",
          "type": "address"
        }
      ],
      "name": "OwnershipTransferred",
      "type": "event"
    },
    {
      "anonymous": false,
      "inputs": [
        {
          "indexed": true,
          "internalType": "address",
          "name": "user",
          "type": "address"
        },
        {
          "indexed": true,
          "internalType": "address",
          "name": "recipient",
          "type": "address"
        },
        {
          "indexed": false,
          "internalType": "uint256",
          "name": "amount",
          "type": "uint256"
        }
      ],
      "name": "SpendETH",
      "type": "event"
    },
    {
      "anonymous": false,
      "inputs": [
        {
          "indexed": true,
          "internalType": "address",
          "name": "user",
          "type": "address"
        },
        {
          "indexed": true,
          "internalType": "address",
          "name": "token",
          "type": "address"
        },
        {
          "indexed": true,
          "internalType": "address",
          "name": "recipient",
          "type": "address"
        },
        {
          "indexed": false,
          "internalType": "uint256",
          "name": "amount",
          "type": "uint256"
        }
      ],
      "name": "SpendToken",
      "type": "event"
    },
    {
      "anonymous": false,
      "inputs": [
        {
          "indexed": true,
          "internalType": "address",
          "name": "token",
          "type": "address"
        },
        {
          "indexed": false,
          "internalType": "string",
          "name": "identifier",
          "type": "string"
        }
      ],
      "name": "TokenIdentifierRegistered",
      "type": "event"
    },
    {
      "anonymous": false,
      "inputs": [
        {
          "indexed": true,
          "internalType": "address",
          "name": "from",
          "type": "address"
        },
        {
          "indexed": true,
          "internalType": "address",
          "name": "to",
          "type": "address"
        },
        {
          "indexed": true,
          "internalType": "uint256",
          "name": "tokenId",
          "type": "uint256"
        }
      ],
      "name": "Transfer",
      "type": "event"
    },
    {
      "stateMutability": "payable",
      "type": "fallback"
    },
    {
      "inputs": [],
      "name": "DepositETH",
      "outputs": [],
      "stateMutability": "payable",
      "type": "function"
    },
    {
      "inputs": [],
      "name": "accessManager",
      "outputs": [
        {
          "internalType": "contract IAccessManager",
          "name": "",
          "type": "address"
        }
      ],
      "stateMutability": "view",
      "type": "function"
    },
    {
      "inputs": [
        {
          "internalType": "address",
          "name": "",
          "type": "address"
        }
      ],
      "name": "addressesToIdentifiers",
      "outputs": [
        {
          "internalType": "string",
          "name": "",
          "type": "string"
        }
      ],
      "stateMutability": "view",
      "type": "function"
    },
    {
      "inputs": [
        {
          "internalType": "address",
          "name": "to",
          "type": "address"
        },
        {
          "internalType": "uint256",
          "name": "tokenId",
          "type": "uint256"
        }
      ],
      "name": "approve",
      "outputs": [],
      "stateMutability": "nonpayable",
      "type": "function"
    },
    {
      "inputs": [
        {
          "internalType": "address",
          "name": "owner",
          "type": "address"
        }
      ],
      "name": "balanceOf",
      "outputs": [
        {
          "internalType": "uint256",
          "name": "",
          "type": "uint256"
        }
      ],
      "stateMutability": "view",
      "type": "function"
    },
    {
      "inputs": [],
      "name": "emergencyWithdraw",
      "outputs": [],
      "stateMutability": "nonpayable",
      "type": "function"
    },
    {
      "inputs": [
        {
          "internalType": "address",
          "name": "user",
          "type": "address"
        },
        {
          "internalType": "address",
          "name": "token",
          "type": "address"
        },
        {
          "internalType": "address",
          "name": "recipient",
          "type": "address"
        },
        {
          "internalType": "uint256",
          "name": "amount",
          "type": "uint256"
        },
        {
          "internalType": "string",
          "name": "message_hash",
          "type": "string"
        },
        {
          "internalType": "bytes",
          "name": "signature",
          "type": "bytes"
        }
      ],
      "name": "executeTransaction",
      "outputs": [],
      "stateMutability": "nonpayable",
      "type": "function"
    },
    {
      "inputs": [
        {
          "internalType": "uint256",
          "name": "tokenId",
          "type": "uint256"
        }
      ],
      "name": "getApproved",
      "outputs": [
        {
          "internalType": "address",
          "name": "",
          "type": "address"
        }
      ],
      "stateMutability": "view",
      "type": "function"
    },
    {
      "inputs": [
        {
          "internalType": "string",
          "name": "",
          "type": "string"
        }
      ],
      "name": "identifiersToAddresses",
      "outputs": [
        {
          "internalType": "address",
          "name": "",
          "type": "address"
        }
      ],
      "stateMutability": "view",
      "type": "function"
    },
    {
      "inputs": [
        {
          "internalType": "string",
          "name": "",
          "type": "string"
        }
      ],
      "name": "identifiersToToken",
      "outputs": [
        {
          "internalType": "address",
          "name": "",
          "type": "address"
        }
      ],
      "stateMutability": "view",
      "type": "function"
    },
    {
      "inputs": [
        {
          "internalType": "address",
          "name": "owner",
          "type": "address"
        },
        {
          "internalType": "address",
          "name": "operator",
          "type": "address"
        }
      ],
      "name": "isApprovedForAll",
      "outputs": [
        {
          "internalType": "bool",
          "name": "",
          "type": "bool"
        }
      ],
      "stateMutability": "view",
      "type": "function"
    },
    {
      "inputs": [
        {
          "internalType": "string",
          "name": "identifier",
          "type": "string"
        }
      ],
      "name": "isIdentifierAvailable",
      "outputs": [
        {
          "internalType": "bool",
          "name": "",
          "type": "bool"
        }
      ],
      "stateMutability": "view",
      "type": "function"
    },
    {
      "inputs": [
        {
          "internalType": "string",
          "name": "name",
          "type": "string"
        }
      ],
      "name": "isTokenIdentifierAvailable",
      "outputs": [
        {
          "internalType": "bool",
          "name": "",
          "type": "bool"
        }
      ],
      "stateMutability": "view",
      "type": "function"
    },
    {
      "inputs": [],
      "name": "mintFee",
      "outputs": [
        {
          "internalType": "uint256",
          "name": "",
          "type": "uint256"
        }
      ],
      "stateMutability": "view",
      "type": "function"
    },
    {
      "inputs": [
        {
          "internalType": "address",
          "name": "recipient",
          "type": "address"
        },
        {
          "internalType": "string",
          "name": "uri",
          "type": "string"
        }
      ],
      "name": "mintNFT",
      "outputs": [],
      "stateMutability": "payable",
      "type": "function"
    },
    {
      "inputs": [],
      "name": "name",
      "outputs": [
        {
          "internalType": "string",
          "name": "",
          "type": "string"
        }
      ],
      "stateMutability": "view",
      "type": "function"
    },
    {
      "inputs": [],
      "name": "owner",
      "outputs": [
        {
          "internalType": "address",
          "name": "",
          "type": "address"
        }
      ],
      "stateMutability": "view",
      "type": "function"
    },
    {
      "inputs": [
        {
          "internalType": "uint256",
          "name": "tokenId",
          "type": "uint256"
        }
      ],
      "name": "ownerOf",
      "outputs": [
        {
          "internalType": "address",
          "name": "",
          "type": "address"
        }
      ],
      "stateMutability": "view",
      "type": "function"
    },
    {
      "inputs": [
        {
          "internalType": "string",
          "name": "identifier",
          "type": "string"
        }
      ],
      "name": "registerIdentifier",
      "outputs": [],
      "stateMutability": "nonpayable",
      "type": "function"
    },
    {
      "inputs": [
        {
          "internalType": "string",
          "name": "name",
          "type": "string"
        },
        {
          "internalType": "address",
          "name": "token",
          "type": "address"
        }
      ],
      "name": "registerTokenIdentifier",
      "outputs": [],
      "stateMutability": "nonpayable",
      "type": "function"
    },
    {
      "inputs": [],
      "name": "renounceOwnership",
      "outputs": [],
      "stateMutability": "nonpayable",
      "type": "function"
    },
    {
      "inputs": [
        {
          "internalType": "address",
          "name": "from",
          "type": "address"
        },
        {
          "internalType": "address",
          "name": "to",
          "type": "address"
        },
        {
          "internalType": "uint256",
          "name": "tokenId",
          "type": "uint256"
        }
      ],
      "name": "safeTransferFrom",
      "outputs": [],
      "stateMutability": "nonpayable",
      "type": "function"
    },
    {
      "inputs": [
        {
          "internalType": "address",
          "name": "from",
          "type": "address"
        },
        {
          "internalType": "address",
          "name": "to",
          "type": "address"
        },
        {
          "internalType": "uint256",
          "name": "tokenId",
          "type": "uint256"
        },
        {
          "internalType": "bytes",
          "name": "data",
          "type": "bytes"
        }
      ],
      "name": "safeTransferFrom",
      "outputs": [],
      "stateMutability": "nonpayable",
      "type": "function"
    },
    {
      "inputs": [
        {
          "internalType": "address",
          "name": "operator",
          "type": "address"
        },
        {
          "internalType": "bool",
          "name": "approved",
          "type": "bool"
        }
      ],
      "name": "setApprovalForAll",
      "outputs": [],
      "stateMutability": "nonpayable",
      "type": "function"
    },
    {
      "inputs": [],
      "name": "signatureManager",
      "outputs": [
        {
          "internalType": "contract ISignatureManager",
          "name": "",
          "type": "address"
        }
      ],
      "stateMutability": "view",
      "type": "function"
    },
    {
      "inputs": [],
      "name": "subscriptionManager",
      "outputs": [
        {
          "internalType": "contract ISubscriptionManager",
          "name": "",
          "type": "address"
        }
      ],
      "stateMutability": "view",
      "type": "function"
    },
    {
      "inputs": [
        {
          "internalType": "bytes4",
          "name": "interfaceId",
          "type": "bytes4"
        }
      ],
      "name": "supportsInterface",
      "outputs": [
        {
          "internalType": "bool",
          "name": "",
          "type": "bool"
        }
      ],
      "stateMutability": "view",
      "type": "function"
    },
    {
      "inputs": [],
      "name": "symbol",
      "outputs": [
        {
          "internalType": "string",
          "name": "",
          "type": "string"
        }
      ],
      "stateMutability": "view",
      "type": "function"
    },
    {
      "inputs": [
        {
          "internalType": "string",
          "name": "str",
          "type": "string"
        }
      ],
      "name": "toLower",
      "outputs": [
        {
          "internalType": "string",
          "name": "",
          "type": "string"
        }
      ],
      "stateMutability": "pure",
      "type": "function"
    },
    {
      "inputs": [],
      "name": "tokenManager",
      "outputs": [
        {
          "internalType": "contract ITokenManager",
          "name": "",
          "type": "address"
        }
      ],
      "stateMutability": "view",
      "type": "function"
    },
    {
      "inputs": [
        {
          "internalType": "address",
          "name": "",
          "type": "address"
        }
      ],
      "name": "tokenToIdentifiers",
      "outputs": [
        {
          "internalType": "string",
          "name": "",
          "type": "string"
        }
      ],
      "stateMutability": "view",
      "type": "function"
    },
    {
      "inputs": [
        {
          "internalType": "uint256",
          "name": "tokenId",
          "type": "uint256"
        }
      ],
      "name": "tokenURI",
      "outputs": [
        {
          "internalType": "string",
          "name": "",
          "type": "string"
        }
      ],
      "stateMutability": "view",
      "type": "function"
    },
    {
      "inputs": [
        {
          "internalType": "uint256",
          "name": "",
          "type": "uint256"
        }
      ],
      "name": "tokenURIs",
      "outputs": [
        {
          "internalType": "string",
          "name": "",
          "type": "string"
        }
      ],
      "stateMutability": "view",
      "type": "function"
    },
    {
      "inputs": [
        {
          "internalType": "address",
          "name": "from",
          "type": "address"
        },
        {
          "internalType": "address",
          "name": "to",
          "type": "address"
        },
        {
          "internalType": "uint256",
          "name": "tokenId",
          "type": "uint256"
        }
      ],
      "name": "transferFrom",
      "outputs": [],
      "stateMutability": "nonpayable",
      "type": "function"
    },
    {
      "inputs": [
        {
          "internalType": "address",
          "name": "newOwner",
          "type": "address"
        }
      ],
      "name": "transferOwnership",
      "outputs": [],
      "stateMutability": "nonpayable",
      "type": "function"
    },
    {
      "inputs": [
        {
          "internalType": "uint256",
          "name": "amount",
          "type": "uint256"
        }
      ],
      "name": "withdrawFunds",
      "outputs": [],
      "stateMutability": "nonpayable",
      "type": "function"
    },
    {
      "stateMutability": "payable",
      "type": "receive"
    }
  ],
  "transactionHash": "0x9c4cc0eb0bf8895d882e9885ca22f8c1e7babe949ee877bddcee919717f75ac2",
  "args": [
    "sahaai",
    "S",
    "0x410cf11Ce56B1D1E07e8D8EE62A3Eb2D5aBFcb8D",
    "0x38Dd324cF891c4c03cDDF715Ff5e0cCe1DBea62c",
    "0x6fb8e247F346960D06519Fd19c3C83427C0a61D4",
    "0x05765D29F2E0FA54D5e4EB06C7A95f28a6eB142e"
  ],
  "numDeployments": 1,
  "solcInputHash": "46751d83236763954aba81b4642a486e",
  "bytecode": "0x6080604052655af3107a40006011553480156200001b57600080fd5b5060405162002f8838038062002f888339810160408190526200003e916200022c565b33868660006200004f83826200036e565b5060016200005e82826200036e565b5050506001600160a01b0381166200009057604051631e4fbdf760e01b81526000600482015260240160405180910390fd5b6200009b81620000f8565b506001600755600d80546001600160a01b039586166001600160a01b031991821617909155600e805494861694821694909417909355600f80549285169284169290921790915560108054919093169116179055506200043a9050565b600680546001600160a01b038381166001600160a01b0319831681179093556040519116919082907f8be0079c531659141344cd1fd0a4f28419497f9722a3daafe3b4186f6b6457e090600090a35050565b634e487b7160e01b600052604160045260246000fd5b600082601f8301126200017257600080fd5b81516001600160401b03808211156200018f576200018f6200014a565b604051601f8301601f19908116603f01168101908282118183101715620001ba57620001ba6200014a565b81604052838152602092508683858801011115620001d757600080fd5b600091505b83821015620001fb5785820183015181830184015290820190620001dc565b600093810190920192909252949350505050565b80516001600160a01b03811681146200022757600080fd5b919050565b60008060008060008060c087890312156200024657600080fd5b86516001600160401b03808211156200025e57600080fd5b6200026c8a838b0162000160565b975060208901519150808211156200028357600080fd5b506200029289828a0162000160565b955050620002a3604088016200020f565b9350620002b3606088016200020f565b9250620002c3608088016200020f565b9150620002d360a088016200020f565b90509295509295509295565b600181811c90821680620002f457607f821691505b6020821081036200031557634e487b7160e01b600052602260045260246000fd5b50919050565b601f8211156200036957600081815260208120601f850160051c81016020861015620003445750805b601f850160051c820191505b81811015620003655782815560010162000350565b5050505b505050565b81516001600160401b038111156200038a576200038a6200014a565b620003a2816200039b8454620002df565b846200031b565b602080601f831160018114620003da5760008415620003c15750858301515b600019600386901b1c1916600185901b17855562000365565b600085815260208120601f198616915b828110156200040b57888601518255948401946001909101908401620003ea565b50858210156200042a5787850151600019600388901b60f8161c191681555b5050505050600190811b01905550565b612b3e806200044a6000396000f3fe6080604052600436106102135760003560e01c80638da5cb5b11610118578063d7720df3116100a0578063eacabe141161006f578063eacabe141461076d578063f1ab38d814610780578063f2fde38b146107c1578063fba246de14610319578063fdcb6068146107e15761031b565b8063d7720df3146106f8578063db2e21bc14610718578063e49e870d1461072d578063e985e9c51461074d5761031b565b8063a6ae332d116100e7578063a6ae332d14610658578063ab6d899b14610678578063b88d4fde14610698578063bf158fd2146106b8578063c87b56dd146106d85761031b565b80638da5cb5b146105e55780639416b4231461060357806395d89b4114610623578063a22cb465146106385761031b565b8063247a29fe1161019b57806342842e0e1161016a57806342842e0e146105505780636352211e146105705780636c8b703f1461059057806370a08231146105b0578063715018a6146105d05761031b565b8063247a29fe146104d05780632a709b14146104f0578063359c67921461051057806341888612146105305761031b565b806313966db5116101e257806313966db51461040b57806313f570511461042f578063155dd5ee1461044f5780631fe6caed1461046f57806323b872dd146104b05761031b565b806301ffc9a71461035c57806306fdde0314610391578063081812fc146103b3578063095ea7b3146103eb5761031b565b3661031b57601060009054906101000a90046001600160a01b03166001600160a01b031663b187bd266040518163ffffffff1660e01b8152600401602060405180830381865afa15801561026b573d6000803e3d6000fd5b505050506040513d601f19601f8201168201806040525081019061028f9190612280565b156102b55760405162461bcd60e51b81526004016102ac906122a4565b60405180910390fd5b600f60009054906101000a90046001600160a01b03166001600160a01b031663f6326fb3346040518263ffffffff1660e01b81526004016000604051808303818588803b15801561030557600080fd5b505af1158015610319573d6000803e3d6000fd5b005b60405162461bcd60e51b815260206004820152601660248201527511985b1b189858dac81b9bdd081cdd5c1c1bdc9d195960521b60448201526064016102ac565b34801561036857600080fd5b5061037c6103773660046122e6565b610801565b60405190151581526020015b60405180910390f35b34801561039d57600080fd5b506103a6610853565b6040516103889190612353565b3480156103bf57600080fd5b506103d36103ce366004612366565b6108e5565b6040516001600160a01b039091168152602001610388565b3480156103f757600080fd5b50610319610406366004612394565b61090e565b34801561041757600080fd5b5061042160115481565b604051908152602001610388565b34801561043b57600080fd5b5061031961044a366004612477565b61091d565b34801561045b57600080fd5b5061031961046a366004612366565b610d7f565b34801561047b57600080fd5b506103d361048a36600461251b565b80516020818301810180516009825292820191909301209152546001600160a01b031681565b3480156104bc57600080fd5b506103196104cb366004612550565b610e56565b3480156104dc57600080fd5b506103196104eb36600461251b565b610ee1565b3480156104fc57600080fd5b50600f546103d3906001600160a01b031681565b34801561051c57600080fd5b50600e546103d3906001600160a01b031681565b34801561053c57600080fd5b5061037c61054b36600461251b565b610fd8565b34801561055c57600080fd5b5061031961056b366004612550565b611013565b34801561057c57600080fd5b506103d361058b366004612366565b611033565b34801561059c57600080fd5b506103a66105ab366004612366565b61103e565b3480156105bc57600080fd5b506104216105cb366004612591565b6110d8565b3480156105dc57600080fd5b50610319611120565b3480156105f157600080fd5b506006546001600160a01b03166103d3565b34801561060f57600080fd5b506103a661061e36600461251b565b611134565b34801561062f57600080fd5b506103a6611212565b34801561064457600080fd5b506103196106533660046125ae565b611221565b34801561066457600080fd5b506103a6610673366004612591565b61122c565b34801561068457600080fd5b5061037c61069336600461251b565b611245565b3480156106a457600080fd5b506103196106b33660046125e7565b611253565b3480156106c457600080fd5b50600d546103d3906001600160a01b031681565b3480156106e457600080fd5b506103a66106f3366004612366565b61126b565b34801561070457600080fd5b506103a6610713366004612591565b61135b565b34801561072457600080fd5b50610319611374565b34801561073957600080fd5b50610319610748366004612653565b6116e9565b34801561075957600080fd5b5061037c61076836600461269a565b61190c565b61031961077b3660046126c8565b61193a565b34801561078c57600080fd5b506103d361079b36600461251b565b8051602081830181018051600b825292820191909301209152546001600160a01b031681565b3480156107cd57600080fd5b506103196107dc366004612591565b611c4f565b3480156107ed57600080fd5b506010546103d3906001600160a01b031681565b60006001600160e01b031982166380ac58cd60e01b148061083257506001600160e01b03198216635b5e139f60e01b145b8061084d57506301ffc9a760e01b6001600160e01b03198316145b92915050565b60606000805461086290612718565b80601f016020809104026020016040519081016040528092919081815260200182805461088e90612718565b80156108db5780601f106108b0576101008083540402835291602001916108db565b820191906000526020600020905b8154815290600101906020018083116108be57829003601f168201915b5050505050905090565b60006108f082611c8d565b506000828152600460205260409020546001600160a01b031661084d565b610919828233611cc6565b5050565b601060009054906101000a90046001600160a01b03166001600160a01b031663a6d5b7326040518163ffffffff1660e01b8152600401602060405180830381865afa158015610970573d6000803e3d6000fd5b505050506040513d601f19601f820116820180604052508101906109949190612752565b6001600160a01b0316336001600160a01b0316146109c45760405162461bcd60e51b81526004016102ac9061276f565b601060009054906101000a90046001600160a01b03166001600160a01b031663b187bd266040518163ffffffff1660e01b8152600401602060405180830381865afa158015610a17573d6000803e3d6000fd5b505050506040513d601f19601f82011682018060405250810190610a3b9190612280565b15610a585760405162461bcd60e51b81526004016102ac906122a4565b610a60611cd3565b600e546040516314cf732960e21b81526001600160a01b039091169063533dcca490610a949089908690869060040161279e565b602060405180830381865afa158015610ab1573d6000803e3d6000fd5b505050506040513d601f19601f82011682018060405250810190610ad59190612280565b610b155760405162461bcd60e51b8152602060048201526011602482015270496e76616c6964207369676e617475726560781b60448201526064016102ac565b6001600160a01b038516610c4157600f54604051633cfba0e360e01b81526001600160a01b03888116600483015285921690633cfba0e390602401602060405180830381865afa158015610b6d573d6000803e3d6000fd5b505050506040513d601f19601f82011682018060405250810190610b9191906127de565b1015610bce5760405162461bcd60e51b815260206004820152600c60248201526b08ae4e474caf0cac65acae8d60a31b60448201526064016102ac565b600f5460405163e7137dbf60e01b81526001600160a01b0388811660048301528681166024830152604482018690529091169063e7137dbf90606401600060405180830381600087803b158015610c2457600080fd5b505af1158015610c38573d6000803e3d6000fd5b50505050610d6d565b600f546040516326dfb62d60e11b81526001600160a01b038881166004830152878116602483015285921690634dbf6c5a90604401602060405180830381865afa158015610c93573d6000803e3d6000fd5b505050506040513d601f19601f82011682018060405250810190610cb791906127de565b1015610cf65760405162461bcd60e51b815260206004820152600e60248201526d22b9391d32bc32b196ba37b5b2b760911b60448201526064016102ac565b600f546040516310baa6cf60e11b81526001600160a01b0388811660048301528681166024830152878116604483015260648201869052909116906321754d9e90608401600060405180830381600087803b158015610d5457600080fd5b505af1158015610d68573d6000803e3d6000fd5b505050505b610d776001600755565b505050505050565b610d87611cfd565b80471015610dca5760405162461bcd60e51b815260206004820152601060248201526f08ae4e47486dedce8e4c2c6e85acae8d60831b60448201526064016102ac565b6006546040516001600160a01b039091169082156108fc029083906000818181858888f19350505050158015610e04573d6000803e3d6000fd5b506006546001600160a01b03166001600160a01b03167feaff4b37086828766ad3268786972c0cd24259d4c87a80f9d3963a3c3d999b0d82604051610e4b91815260200190565b60405180910390a250565b6001600160a01b038216610e8057604051633250574960e11b8152600060048201526024016102ac565b6000610e8d838333611d2a565b9050836001600160a01b0316816001600160a01b031614610edb576040516364283d7b60e01b81526001600160a01b03808616600483015260248201849052821660448201526064016102ac565b50505050565b6000610eec82611134565b9050610ef781611245565b610f335760405162461bcd60e51b815260206004820152600d60248201526c4572723a496420696e2075736560981b60448201526064016102ac565b336009610f3f83611134565b604051610f4c91906127f7565b908152604080516020928190038301902080546001600160a01b0319166001600160a01b039490941693909317909255336000908152600a90915220610f928282612859565b50336001600160a01b03167f317174c3501391e9905f05af88391d3ff33078a6d283f662842ad794ca5c67b082604051610fcc9190612353565b60405180910390a25050565b600080600b610fe684611134565b604051610ff391906127f7565b908152604051908190036020019020546001600160a01b03161492915050565b61102e83838360405180602001604052806000815250611253565b505050565b600061084d82611c8d565b6008602052600090815260409020805461105790612718565b80601f016020809104026020016040519081016040528092919081815260200182805461108390612718565b80156110d05780601f106110a5576101008083540402835291602001916110d0565b820191906000526020600020905b8154815290600101906020018083116110b357829003601f168201915b505050505081565b60006001600160a01b038216611104576040516322718ad960e21b8152600060048201526024016102ac565b506001600160a01b031660009081526003602052604090205490565b611128611cfd565b6111326000611e23565b565b60608160005b815181101561120b57604160f81b82828151811061115a5761115a612919565b01602001516001600160f81b0319161080159061119b5750605a60f81b82828151811061118957611189612919565b01602001516001600160f81b03191611155b156111f9578181815181106111b2576111b2612919565b602001015160f81c60f81b60f81c60206111cc9190612945565b60f81b8282815181106111e1576111e1612919565b60200101906001600160f81b031916908160001a9053505b806112038161295e565b91505061113a565b5092915050565b60606001805461086290612718565b610919338383611e75565b600c602052600090815260409020805461105790612718565b6000806009610fe684611134565b61125e848484610e56565b610edb3385858585611f14565b6060600061127883611033565b6001600160a01b0316036112bd5760405162461bcd60e51b815260206004820152600c60248201526b4572723a746f6b656e55524960a01b60448201526064016102ac565b600082815260086020526040902080546112d690612718565b80601f016020809104026020016040519081016040528092919081815260200182805461130290612718565b801561134f5780601f106113245761010080835404028352916020019161134f565b820191906000526020600020905b81548152906001019060200180831161133257829003601f168201915b50505050509050919050565b600a602052600090815260409020805461105790612718565b601060009054906101000a90046001600160a01b03166001600160a01b031663b187bd266040518163ffffffff1660e01b8152600401602060405180830381865afa1580156113c7573d6000803e3d6000fd5b505050506040513d601f19601f820116820180604052508101906113eb9190612280565b156114085760405162461bcd60e51b81526004016102ac906122a4565b611410611cd3565b600f54604051633cfba0e360e01b81523360048201526000916001600160a01b031690633cfba0e390602401602060405180830381865afa158015611459573d6000803e3d6000fd5b505050506040513d601f19601f8201168201806040525081019061147d91906127de565b905080156114f157600f5460405163e7137dbf60e01b815233600482018190526024820152604481018390526001600160a01b039091169063e7137dbf90606401600060405180830381600087803b1580156114d857600080fd5b505af11580156114ec573d6000803e3d6000fd5b505050505b600f54604051632a04c04960e11b81523360048201526000916001600160a01b031690635409809290602401600060405180830381865afa15801561153a573d6000803e3d6000fd5b505050506040513d6000823e601f3d908101601f191682016040526115629190810190612977565b905060005b81518110156116dc57600f5482516000916001600160a01b031690634dbf6c5a90339086908690811061159c5761159c612919565b60200260200101516040518363ffffffff1660e01b81526004016115d69291906001600160a01b0392831681529116602082015260400190565b602060405180830381865afa1580156115f3573d6000803e3d6000fd5b505050506040513d601f19601f8201168201806040525081019061161791906127de565b905080156116c957600f5483516001600160a01b03909116906321754d9e903390819087908790811061164c5761164c612919565b60209081029190910101516040516001600160e01b031960e086901b1681526001600160a01b039384166004820152918316602483015291909116604482015260648101849052608401600060405180830381600087803b1580156116b057600080fd5b505af11580156116c4573d6000803e3d6000fd5b505050505b50806116d48161295e565b915050611567565b5050506111326001600755565b601060009054906101000a90046001600160a01b03166001600160a01b031663a6d5b7326040518163ffffffff1660e01b8152600401602060405180830381865afa15801561173c573d6000803e3d6000fd5b505050506040513d601f19601f820116820180604052508101906117609190612752565b6001600160a01b0316336001600160a01b0316146117905760405162461bcd60e51b81526004016102ac9061276f565b600061179b83611134565b90506117a681610fd8565b6117e35760405162461bcd60e51b815260206004820152600e60248201526d115c9c8e9259081d5b985d985a5b60921b60448201526064016102ac565b6040805160008082526020808301808552835190206001600160a01b0387168352600c9091529083902090926118199201612a29565b604051602081830303815290604052805190602001201461186f5760405162461bcd60e51b815260206004820152601060248201526f115c9c8e991d5c1b1a58d85d194b5a5960821b60448201526064016102ac565b6001600160a01b0382166000908152600c602052604090206118918282612859565b5081600b826040516118a391906127f7565b90815260405190819003602001812080546001600160a01b039384166001600160a01b0319909116179055908316907f317174c3501391e9905f05af88391d3ff33078a6d283f662842ad794ca5c67b0906118ff908690612353565b60405180910390a2505050565b6001600160a01b03918216600090815260056020908152604080832093909416825291909152205460ff1690565b601060009054906101000a90046001600160a01b03166001600160a01b031663a6d5b7326040518163ffffffff1660e01b8152600401602060405180830381865afa15801561198d573d6000803e3d6000fd5b505050506040513d601f19601f820116820180604052508101906119b19190612752565b6001600160a01b0316336001600160a01b0316146119e15760405162461bcd60e51b81526004016102ac9061276f565b6119e9611cd3565b6001600160a01b038216611a335760405162461bcd60e51b8152602060048201526011602482015270125b9d985b1a59081c9958da5c1a595b9d607a1b60448201526064016102ac565b601154600f54604051633cfba0e360e01b81526001600160a01b03858116600483015290911690633cfba0e390602401602060405180830381865afa158015611a80573d6000803e3d6000fd5b505050506040513d601f19601f82011682018060405250810190611aa491906127de565b1015611add5760405162461bcd60e51b8152602060048201526008602482015267115c9c8e935a5b9d60c21b60448201526064016102ac565b611ae98260125461203d565b6012546000908152600860205260409020611b048282612859565b50816001600160a01b03167fd35bb95e09c04b219e35047ce7b7b300e3384264ef84a40456943dbc0fc17c1460125483604051611b42929190612a9f565b60405180910390a260128054906000611b5a8361295e565b9091555050600f546010546040805163536adb9960e11b815290516001600160a01b039384169363e7137dbf93879391169163a6d5b732916004808201926020929091908290030181865afa158015611bb7573d6000803e3d6000fd5b505050506040513d601f19601f82011682018060405250810190611bdb9190612752565b6011546040516001600160e01b031960e086901b1681526001600160a01b0393841660048201529290911660248301526044820152606401600060405180830381600087803b158015611c2d57600080fd5b505af1158015611c41573d6000803e3d6000fd5b505050506109196001600755565b611c57611cfd565b6001600160a01b038116611c8157604051631e4fbdf760e01b8152600060048201526024016102ac565b611c8a81611e23565b50565b6000818152600260205260408120546001600160a01b03168061084d57604051637e27328960e01b8152600481018490526024016102ac565b61102e83838360016120a2565b600260075403611cf657604051633ee5aeb560e01b815260040160405180910390fd5b6002600755565b6006546001600160a01b031633146111325760405163118cdaa760e01b81523360048201526024016102ac565b6000828152600260205260408120546001600160a01b0390811690831615611d5757611d578184866121a8565b6001600160a01b03811615611d9557611d746000856000806120a2565b6001600160a01b038116600090815260036020526040902080546000190190555b6001600160a01b03851615611dc4576001600160a01b0385166000908152600360205260409020805460010190555b60008481526002602052604080822080546001600160a01b0319166001600160a01b0389811691821790925591518793918516917fddf252ad1be2c89b69c2b068fc378daa952ba7f163c4a11628f55a4df523b3ef91a4949350505050565b600680546001600160a01b038381166001600160a01b0319831681179093556040519116919082907f8be0079c531659141344cd1fd0a4f28419497f9722a3daafe3b4186f6b6457e090600090a35050565b6001600160a01b038216611ea757604051630b61174360e31b81526001600160a01b03831660048201526024016102ac565b6001600160a01b03838116600081815260056020908152604080832094871680845294825291829020805460ff191686151590811790915591519182527f17307eab39ab6107e8899845ad3d59bd9653f200f220920489ca2b5937696c31910160405180910390a3505050565b6001600160a01b0383163b1561203657604051630a85bd0160e11b81526001600160a01b0384169063150b7a0290611f56908890889087908790600401612ab8565b6020604051808303816000875af1925050508015611f91575060408051601f3d908101601f19168201909252611f8e91810190612aeb565b60015b611ffa573d808015611fbf576040519150601f19603f3d011682016040523d82523d6000602084013e611fc4565b606091505b508051600003611ff257604051633250574960e11b81526001600160a01b03851660048201526024016102ac565b805181602001fd5b6001600160e01b03198116630a85bd0160e11b14610d7757604051633250574960e11b81526001600160a01b03851660048201526024016102ac565b5050505050565b6001600160a01b03821661206757604051633250574960e11b8152600060048201526024016102ac565b600061207583836000611d2a565b90506001600160a01b0381161561102e576040516339e3563760e11b8152600060048201526024016102ac565b80806120b657506001600160a01b03821615155b156121785760006120c684611c8d565b90506001600160a01b038316158015906120f25750826001600160a01b0316816001600160a01b031614155b80156121055750612103818461190c565b155b1561212e5760405163a9fbf51f60e01b81526001600160a01b03841660048201526024016102ac565b81156121765783856001600160a01b0316826001600160a01b03167f8c5be1e5ebec7d5bd14f71427d1e84f3dd0314c0f7b2291e5b200ac8c7c3b92560405160405180910390a45b505b5050600090815260046020526040902080546001600160a01b0319166001600160a01b0392909216919091179055565b6121b383838361220c565b61102e576001600160a01b0383166121e157604051637e27328960e01b8152600481018290526024016102ac565b60405163177e802f60e01b81526001600160a01b0383166004820152602481018290526044016102ac565b60006001600160a01b0383161580159061226a5750826001600160a01b0316846001600160a01b031614806122465750612246848461190c565b8061226a57506000828152600460205260409020546001600160a01b038481169116145b949350505050565b8015158114611c8a57600080fd5b60006020828403121561229257600080fd5b815161229d81612272565b9392505050565b60208082526012908201527110dbdb9d1c9858dd081a5cc81c185d5cd95960721b604082015260600190565b6001600160e01b031981168114611c8a57600080fd5b6000602082840312156122f857600080fd5b813561229d816122d0565b60005b8381101561231e578181015183820152602001612306565b50506000910152565b6000815180845261233f816020860160208601612303565b601f01601f19169290920160200192915050565b60208152600061229d6020830184612327565b60006020828403121561237857600080fd5b5035919050565b6001600160a01b0381168114611c8a57600080fd5b600080604083850312156123a757600080fd5b82356123b28161237f565b946020939093013593505050565b634e487b7160e01b600052604160045260246000fd5b604051601f8201601f1916810167ffffffffffffffff811182821017156123ff576123ff6123c0565b604052919050565b600082601f83011261241857600080fd5b813567ffffffffffffffff811115612432576124326123c0565b612445601f8201601f19166020016123d6565b81815284602083860101111561245a57600080fd5b816020850160208301376000918101602001919091529392505050565b60008060008060008060c0878903121561249057600080fd5b863561249b8161237f565b955060208701356124ab8161237f565b945060408701356124bb8161237f565b935060608701359250608087013567ffffffffffffffff808211156124df57600080fd5b6124eb8a838b01612407565b935060a089013591508082111561250157600080fd5b5061250e89828a01612407565b9150509295509295509295565b60006020828403121561252d57600080fd5b813567ffffffffffffffff81111561254457600080fd5b61226a84828501612407565b60008060006060848603121561256557600080fd5b83356125708161237f565b925060208401356125808161237f565b929592945050506040919091013590565b6000602082840312156125a357600080fd5b813561229d8161237f565b600080604083850312156125c157600080fd5b82356125cc8161237f565b915060208301356125dc81612272565b809150509250929050565b600080600080608085870312156125fd57600080fd5b84356126088161237f565b935060208501356126188161237f565b925060408501359150606085013567ffffffffffffffff81111561263b57600080fd5b61264787828801612407565b91505092959194509250565b6000806040838503121561266657600080fd5b823567ffffffffffffffff81111561267d57600080fd5b61268985828601612407565b92505060208301356125dc8161237f565b600080604083850312156126ad57600080fd5b82356126b88161237f565b915060208301356125dc8161237f565b600080604083850312156126db57600080fd5b82356126e68161237f565b9150602083013567ffffffffffffffff81111561270257600080fd5b61270e85828601612407565b9150509250929050565b600181811c9082168061272c57607f821691505b60208210810361274c57634e487b7160e01b600052602260045260246000fd5b50919050565b60006020828403121561276457600080fd5b815161229d8161237f565b60208082526015908201527413db9b1e481052481059d95b9d08185b1b1bddd959605a1b604082015260600190565b6001600160a01b03841681526060602082018190526000906127c290830185612327565b82810360408401526127d48185612327565b9695505050505050565b6000602082840312156127f057600080fd5b5051919050565b60008251612809818460208701612303565b9190910192915050565b601f82111561102e57600081815260208120601f850160051c8101602086101561283a5750805b601f850160051c820191505b81811015610d7757828155600101612846565b815167ffffffffffffffff811115612873576128736123c0565b612887816128818454612718565b84612813565b602080601f8311600181146128bc57600084156128a45750858301515b600019600386901b1c1916600185901b178555610d77565b600085815260208120601f198616915b828110156128eb578886015182559484019460019091019084016128cc565b50858210156129095787850151600019600388901b60f8161c191681555b5050505050600190811b01905550565b634e487b7160e01b600052603260045260246000fd5b634e487b7160e01b600052601160045260246000fd5b60ff818116838216019081111561084d5761084d61292f565b6000600182016129705761297061292f565b5060010190565b6000602080838503121561298a57600080fd5b825167ffffffffffffffff808211156129a257600080fd5b818501915085601f8301126129b657600080fd5b8151818111156129c8576129c86123c0565b8060051b91506129d98483016123d6565b81815291830184019184810190888411156129f357600080fd5b938501935b83851015612a1d5784519250612a0d8361237f565b82825293850193908501906129f8565b98975050505050505050565b6000808354612a3781612718565b60018281168015612a4f5760018114612a6457612a93565b60ff1984168752821515830287019450612a93565b8760005260208060002060005b85811015612a8a5781548a820152908401908201612a71565b50505082870194505b50929695505050505050565b82815260406020820152600061226a6040830184612327565b6001600160a01b03858116825284166020820152604081018390526080606082018190526000906127d490830184612327565b600060208284031215612afd57600080fd5b815161229d816122d056fea26469706673582212204a2f13ce53d2d35dea1a0a98f22e61b1778436f4f2c4aade094f389f050821a464736f6c63430008140033",
  "devdoc": {
    "errors": {
      "ERC721IncorrectOwner(address,uint256,address)": [
        {
          "details": "Indicates an error related to the ownership over a particular token. Used in transfers.",
          "params": {
            "owner": "Address of the current owner of a token.",
            "sender": "Address whose tokens are being transferred.",
            "tokenId": "Identifier number of a token."
          }
        }
      ],
      "ERC721InsufficientApproval(address,uint256)": [
        {
          "details": "Indicates a failure with the `operator`s approval. Used in transfers.",
          "params": {
            "operator": "Address that may be allowed to operate on tokens without being their owner.",
            "tokenId": "Identifier number of a token."
          }
        }
      ],
      "ERC721InvalidApprover(address)": [
        {
          "details": "Indicates a failure with the `approver` of a token to be approved. Used in approvals.",
          "params": {
            "approver": "Address initiating an approval operation."
          }
        }
      ],
      "ERC721InvalidOperator(address)": [
        {
          "details": "Indicates a failure with the `operator` to be approved. Used in approvals.",
          "params": {
            "operator": "Address that may be allowed to operate on tokens without being their owner."
          }
        }
      ],
      "ERC721InvalidOwner(address)": [
        {
          "details": "Indicates that an address can't be an owner. For example, `address(0)` is a forbidden owner in ERC-20. Used in balance queries.",
          "params": {
            "owner": "Address of the current owner of a token."
          }
        }
      ],
      "ERC721InvalidReceiver(address)": [
        {
          "details": "Indicates a failure with the token `receiver`. Used in transfers.",
          "params": {
            "receiver": "Address to which tokens are being transferred."
          }
        }
      ],
      "ERC721InvalidSender(address)": [
        {
          "details": "Indicates a failure with the token `sender`. Used in transfers.",
          "params": {
            "sender": "Address whose tokens are being transferred."
          }
        }
      ],
      "ERC721NonexistentToken(uint256)": [
        {
          "details": "Indicates a `tokenId` whose `owner` is the zero address.",
          "params": {
            "tokenId": "Identifier number of a token."
          }
        }
      ],
      "OwnableInvalidOwner(address)": [
        {
          "details": "The owner is not a valid owner account. (eg. `address(0)`)"
        }
      ],
      "OwnableUnauthorizedAccount(address)": [
        {
          "details": "The caller account is not authorized to perform an operation."
        }
      ],
      "ReentrancyGuardReentrantCall()": [
        {
          "details": "Unauthorized reentrant call."
        }
      ]
    },
    "events": {
      "Approval(address,address,uint256)": {
        "details": "Emitted when `owner` enables `approved` to manage the `tokenId` token."
      },
      "ApprovalForAll(address,address,bool)": {
        "details": "Emitted when `owner` enables or disables (`approved`) `operator` to manage all of its assets."
      },
      "Transfer(address,address,uint256)": {
        "details": "Emitted when `tokenId` token is transferred from `from` to `to`."
      }
    },
    "kind": "dev",
    "methods": {
      "approve(address,uint256)": {
        "details": "See {IERC721-approve}."
      },
      "balanceOf(address)": {
        "details": "See {IERC721-balanceOf}."
      },
      "getApproved(uint256)": {
        "details": "See {IERC721-getApproved}."
      },
      "isApprovedForAll(address,address)": {
        "details": "See {IERC721-isApprovedForAll}."
      },
      "name()": {
        "details": "See {IERC721Metadata-name}."
      },
      "owner()": {
        "details": "Returns the address of the current owner."
      },
      "ownerOf(uint256)": {
        "details": "See {IERC721-ownerOf}."
      },
      "renounceOwnership()": {
        "details": "Leaves the contract without owner. It will not be possible to call `onlyOwner` functions. Can only be called by the current owner. NOTE: Renouncing ownership will leave the contract without an owner, thereby disabling any functionality that is only available to the owner."
      },
      "safeTransferFrom(address,address,uint256)": {
        "details": "See {IERC721-safeTransferFrom}."
      },
      "safeTransferFrom(address,address,uint256,bytes)": {
        "details": "See {IERC721-safeTransferFrom}."
      },
      "setApprovalForAll(address,bool)": {
        "details": "See {IERC721-setApprovalForAll}."
      },
      "supportsInterface(bytes4)": {
        "details": "See {IERC165-supportsInterface}."
      },
      "symbol()": {
        "details": "See {IERC721Metadata-symbol}."
      },
      "tokenURI(uint256)": {
        "details": "See {IERC721Metadata-tokenURI}."
      },
      "transferFrom(address,address,uint256)": {
        "details": "See {IERC721-transferFrom}."
      },
      "transferOwnership(address)": {
        "details": "Transfers ownership of the contract to a new account (`newOwner`). Can only be called by the current owner."
      }
    },
    "version": 1
  },
  "userdoc": {
    "kind": "user",
    "methods": {},
    "version": 1
  },
  "storageLayout": {
    "storage": [
      {
        "astId": 896,
        "contract": "contracts/SahaaiManager.sol:SahaaiManager",
        "label": "_name",
        "offset": 0,
        "slot": "0",
        "type": "t_string_storage"
      },
      {
        "astId": 898,
        "contract": "contracts/SahaaiManager.sol:SahaaiManager",
        "label": "_symbol",
        "offset": 0,
        "slot": "1",
        "type": "t_string_storage"
      },
      {
        "astId": 902,
        "contract": "contracts/SahaaiManager.sol:SahaaiManager",
        "label": "_owners",
        "offset": 0,
        "slot": "2",
        "type": "t_mapping(t_uint256,t_address)"
      },
      {
        "astId": 906,
        "contract": "contracts/SahaaiManager.sol:SahaaiManager",
        "label": "_balances",
        "offset": 0,
        "slot": "3",
        "type": "t_mapping(t_address,t_uint256)"
      },
      {
        "astId": 910,
        "contract": "contracts/SahaaiManager.sol:SahaaiManager",
        "label": "_tokenApprovals",
        "offset": 0,
        "slot": "4",
        "type": "t_mapping(t_uint256,t_address)"
      },
      {
        "astId": 916,
        "contract": "contracts/SahaaiManager.sol:SahaaiManager",
        "label": "_operatorApprovals",
        "offset": 0,
        "slot": "5",
        "type": "t_mapping(t_address,t_mapping(t_address,t_bool))"
      },
      {
        "astId": 8,
        "contract": "contracts/SahaaiManager.sol:SahaaiManager",
        "label": "_owner",
        "offset": 0,
        "slot": "6",
        "type": "t_address"
      },
      {
        "astId": 2434,
        "contract": "contracts/SahaaiManager.sol:SahaaiManager",
        "label": "_status",
        "offset": 0,
        "slot": "7",
        "type": "t_uint256"
      },
      {
        "astId": 6544,
        "contract": "contracts/SahaaiManager.sol:SahaaiManager",
        "label": "tokenURIs",
        "offset": 0,
        "slot": "8",
        "type": "t_mapping(t_uint256,t_string_storage)"
      },
      {
        "astId": 6548,
        "contract": "contracts/SahaaiManager.sol:SahaaiManager",
        "label": "identifiersToAddresses",
        "offset": 0,
        "slot": "9",
        "type": "t_mapping(t_string_memory_ptr,t_address)"
      },
      {
        "astId": 6552,
        "contract": "contracts/SahaaiManager.sol:SahaaiManager",
        "label": "addressesToIdentifiers",
        "offset": 0,
        "slot": "10",
        "type": "t_mapping(t_address,t_string_storage)"
      },
      {
        "astId": 6556,
        "contract": "contracts/SahaaiManager.sol:SahaaiManager",
        "label": "identifiersToToken",
        "offset": 0,
        "slot": "11",
        "type": "t_mapping(t_string_memory_ptr,t_address)"
      },
      {
        "astId": 6560,
        "contract": "contracts/SahaaiManager.sol:SahaaiManager",
        "label": "tokenToIdentifiers",
        "offset": 0,
        "slot": "12",
        "type": "t_mapping(t_address,t_string_storage)"
      },
      {
        "astId": 6563,
        "contract": "contracts/SahaaiManager.sol:SahaaiManager",
        "label": "subscriptionManager",
        "offset": 0,
        "slot": "13",
        "type": "t_contract(ISubscriptionManager)6440"
      },
      {
        "astId": 6566,
        "contract": "contracts/SahaaiManager.sol:SahaaiManager",
        "label": "signatureManager",
        "offset": 0,
        "slot": "14",
        "type": "t_contract(ISignatureManager)6411"
      },
      {
        "astId": 6569,
        "contract": "contracts/SahaaiManager.sol:SahaaiManager",
        "label": "tokenManager",
        "offset": 0,
        "slot": "15",
        "type": "t_contract(ITokenManager)6519"
      },
      {
        "astId": 6572,
        "contract": "contracts/SahaaiManager.sol:SahaaiManager",
        "label": "accessManager",
        "offset": 0,
        "slot": "16",
        "type": "t_contract(IAccessManager)6392"
      },
      {
        "astId": 6575,
        "contract": "contracts/SahaaiManager.sol:SahaaiManager",
        "label": "mintFee",
        "offset": 0,
        "slot": "17",
        "type": "t_uint256"
      },
      {
        "astId": 6577,
        "contract": "contracts/SahaaiManager.sol:SahaaiManager",
        "label": "nextTokenId",
        "offset": 0,
        "slot": "18",
        "type": "t_uint256"
      },
      {
        "astId": 6579,
        "contract": "contracts/SahaaiManager.sol:SahaaiManager",
        "label": "accumulatedFees",
        "offset": 0,
        "slot": "19",
        "type": "t_uint256"
      },
      {
        "astId": 6627,
        "contract": "contracts/SahaaiManager.sol:SahaaiManager",
        "label": "lastOperationTime",
        "offset": 0,
        "slot": "20",
        "type": "t_mapping(t_address,t_uint256)"
      }
    ],
    "types": {
      "t_address": {
        "encoding": "inplace",
        "label": "address",
        "numberOfBytes": "20"
      },
      "t_bool": {
        "encoding": "inplace",
        "label": "bool",
        "numberOfBytes": "1"
      },
      "t_contract(IAccessManager)6392": {
        "encoding": "inplace",
        "label": "contract IAccessManager",
        "numberOfBytes": "20"
      },
      "t_contract(ISignatureManager)6411": {
        "encoding": "inplace",
        "label": "contract ISignatureManager",
        "numberOfBytes": "20"
      },
      "t_contract(ISubscriptionManager)6440": {
        "encoding": "inplace",
        "label": "contract ISubscriptionManager",
        "numberOfBytes": "20"
      },
      "t_contract(ITokenManager)6519": {
        "encoding": "inplace",
        "label": "contract ITokenManager",
        "numberOfBytes": "20"
      },
      "t_mapping(t_address,t_bool)": {
        "encoding": "mapping",
        "key": "t_address",
        "label": "mapping(address => bool)",
        "numberOfBytes": "32",
        "value": "t_bool"
      },
      "t_mapping(t_address,t_mapping(t_address,t_bool))": {
        "encoding": "mapping",
        "key": "t_address",
        "label": "mapping(address => mapping(address => bool))",
        "numberOfBytes": "32",
        "value": "t_mapping(t_address,t_bool)"
      },
      "t_mapping(t_address,t_string_storage)": {
        "encoding": "mapping",
        "key": "t_address",
        "label": "mapping(address => string)",
        "numberOfBytes": "32",
        "value": "t_string_storage"
      },
      "t_mapping(t_address,t_uint256)": {
        "encoding": "mapping",
        "key": "t_address",
        "label": "mapping(address => uint256)",
        "numberOfBytes": "32",
        "value": "t_uint256"
      },
      "t_mapping(t_string_memory_ptr,t_address)": {
        "encoding": "mapping",
        "key": "t_string_memory_ptr",
        "label": "mapping(string => address)",
        "numberOfBytes": "32",
        "value": "t_address"
      },
      "t_mapping(t_uint256,t_address)": {
        "encoding": "mapping",
        "key": "t_uint256",
        "label": "mapping(uint256 => address)",
        "numberOfBytes": "32",
        "value": "t_address"
      },
      "t_mapping(t_uint256,t_string_storage)": {
        "encoding": "mapping",
        "key": "t_uint256",
        "label": "mapping(uint256 => string)",
        "numberOfBytes": "32",
        "value": "t_string_storage"
      },
      "t_string_memory_ptr": {
        "encoding": "bytes",
        "label": "string",
        "numberOfBytes": "32"
      },
      "t_string_storage": {
        "encoding": "bytes",
        "label": "string",
        "numberOfBytes": "32"
      },
      "t_uint256": {
        "encoding": "inplace",
        "label": "uint256",
        "numberOfBytes": "32"
      }
    }
  }
}