{
  "address": "0x38Dd324cF891c4c03cDDF715Ff5e0cCe1DBea62c",
  "abi": [
    {
      "inputs": [
        {
          "internalType": "string",
          "name": "name",
          "type": "string"
        },
        {
          "internalType": "string",
          "name": "version",
          "type": "string"
        }
      ],
      "stateMutability": "nonpayable",
      "type": "constructor"
    },
    {
      "inputs": [],
      "name": "ECDSAInvalidSignature",
      "type": "error"
    },
    {
      "inputs": [
        {
          "internalType": "uint256",
          "name": "length",
          "type": "uint256"
        }
      ],
      "name": "ECDSAInvalidSignatureLength",
      "type": "error"
    },
    {
      "inputs": [
        {
          "internalType": "bytes32",
          "name": "s",
          "type": "bytes32"
        }
      ],
      "name": "ECDSAInvalidSignatureS",
      "type": "error"
    },
    {
      "inputs": [],
      "name": "InvalidShortString",
      "type": "error"
    },
    {
      "inputs": [
        {
          "internalType": "address",
          "name": "owner",
          "type": "address"
        }
      ],
      "name": "OwnableInvalidOwner",
      "type": "error"
    },
    {
      "inputs": [
        {
          "internalType": "address",
          "name": "account",
          "type": "address"
        }
      ],
      "name": "OwnableUnauthorizedAccount",
      "type": "error"
    },
    {
      "inputs": [
        {
          "internalType": "string",
          "name": "str",
          "type": "string"
        }
      ],
      "name": "StringTooLong",
      "type": "error"
    },
    {
      "anonymous": false,
      "inputs": [
        {
          "indexed": true,
          "internalType": "address",
          "name": "oldAgent",
          "type": "address"
        },
        {
          "indexed": true,
          "internalType": "address",
          "name": "newAgent",
          "type": "address"
        }
      ],
      "name": "AIAgentUpdated",
      "type": "event"
    },
    {
      "anonymous": false,
      "inputs": [],
      "name": "EIP712DomainChanged",
      "type": "event"
    },
    {
      "anonymous": false,
      "inputs": [
        {
          "indexed": true,
          "internalType": "address",
          "name": "previousOwner",
          "type": "address"
        },
        {
          "indexed": true,
          "internalType": "address",
          "name": "newOwner",
          "type": "address"
        }
      ],
      "name": "OwnershipTransferred",
      "type": "event"
    },
    {
      "inputs": [],
      "name": "eip712Domain",
      "outputs": [
        {
          "internalType": "bytes1",
          "name": "fields",
          "type": "bytes1"
        },
        {
          "internalType": "string",
          "name": "name",
          "type": "string"
        },
        {
          "internalType": "string",
          "name": "version",
          "type": "string"
        },
        {
          "internalType": "uint256",
          "name": "chainId",
          "type": "uint256"
        },
        {
          "internalType": "address",
          "name": "verifyingContract",
          "type": "address"
        },
        {
          "internalType": "bytes32",
          "name": "salt",
          "type": "bytes32"
        },
        {
          "internalType": "uint256[]",
          "name": "extensions",
          "type": "uint256[]"
        }
      ],
      "stateMutability": "view",
      "type": "function"
    },
    {
      "inputs": [
        {
          "internalType": "bytes32",
          "name": "digest",
          "type": "bytes32"
        }
      ],
      "name": "isDigestUsed",
      "outputs": [
        {
          "internalType": "bool",
          "name": "",
          "type": "bool"
        }
      ],
      "stateMutability": "view",
      "type": "function"
    },
    {
      "inputs": [],
      "name": "owner",
      "outputs": [
        {
          "internalType": "address",
          "name": "",
          "type": "address"
        }
      ],
      "stateMutability": "view",
      "type": "function"
    },
    {
      "inputs": [],
      "name": "renounceOwnership",
      "outputs": [],
      "stateMutability": "nonpayable",
      "type": "function"
    },
    {
      "inputs": [
        {
          "internalType": "address",
          "name": "newOwner",
          "type": "address"
        }
      ],
      "name": "transferOwnership",
      "outputs": [],
      "stateMutability": "nonpayable",
      "type": "function"
    },
    {
      "inputs": [
        {
          "internalType": "address",
          "name": "user",
          "type": "address"
        },
        {
          "internalType": "string",
          "name": "message_hash",
          "type": "string"
        },
        {
          "internalType": "bytes",
          "name": "signature",
          "type": "bytes"
        }
      ],
      "name": "verifySignature",
      "outputs": [
        {
          "internalType": "bool",
          "name": "",
          "type": "bool"
        }
      ],
      "stateMutability": "view",
      "type": "function"
    }
  ],
  "transactionHash": "0x437f7e9cb728344de774d0cd126ea6d2c6c9c78ac077df1e65b2fe701a5d6579",
  "args": [
    "sahaai",
    "1"
  ],
  "numDeployments": 1,
  "solcInputHash": "2d3a9a2614dc5ac2d9b67e46599bfb58",
  "bytecode": "0x6101606040523480156200001257600080fd5b5060405162001084380380620010848339810160408190526200003591620002c2565b818133806200005f57604051631e4fbdf760e01b8152600060048201526024015b60405180910390fd5b6200006a8162000129565b506200007882600162000179565b610120526200008981600262000179565b61014052815160208084019190912060e052815190820120610100524660a0526200011760e05161010051604080517f8b73c3c69bb8fe3d512ecc4cf759cc79239f7b179b0ffacaa9a75d522b39400f60208201529081019290925260608201524660808201523060a082015260009060c00160405160208183030381529060405280519060200120905090565b60805250503060c05250620004e19050565b600080546001600160a01b038381166001600160a01b0319831681178455604051919092169283917f8be0079c531659141344cd1fd0a4f28419497f9722a3daafe3b4186f6b6457e09190a35050565b600060208351101562000199576200019183620001b2565b9050620001ac565b81620001a68482620003bb565b5060ff90505b92915050565b600080829050601f81511115620001e0578260405163305a27a960e01b815260040162000056919062000487565b8051620001ed82620004bc565b179392505050565b634e487b7160e01b600052604160045260246000fd5b60005b83811015620002285781810151838201526020016200020e565b50506000910152565b600082601f8301126200024357600080fd5b81516001600160401b0380821115620002605762000260620001f5565b604051601f8301601f19908116603f011681019082821181831017156200028b576200028b620001f5565b81604052838152866020858801011115620002a557600080fd5b620002b88460208301602089016200020b565b9695505050505050565b60008060408385031215620002d657600080fd5b82516001600160401b0380821115620002ee57600080fd5b620002fc8683870162000231565b935060208501519150808211156200031357600080fd5b50620003228582860162000231565b9150509250929050565b600181811c908216806200034157607f821691505b6020821081036200036257634e487b7160e01b600052602260045260246000fd5b50919050565b601f821115620003b657600081815260208120601f850160051c81016020861015620003915750805b601f850160051c820191505b81811015620003b2578281556001016200039d565b5050505b505050565b81516001600160401b03811115620003d757620003d7620001f5565b620003ef81620003e884546200032c565b8462000368565b602080601f8311600181146200042757600084156200040e5750858301515b600019600386901b1c1916600185901b178555620003b2565b600085815260208120601f198616915b82811015620004585788860151825594840194600190910190840162000437565b5085821015620004775787850151600019600388901b60f8161c191681555b5050505050600190811b01905550565b6020815260008251806020840152620004a88160408501602087016200020b565b601f01601f19169190910160400192915050565b80516020808301519190811015620003625760001960209190910360031b1b16919050565b60805160a05160c05160e051610100516101205161014051610b486200053c6000396000610428015260006103f601526000610528015260006105000152600061045b01526000610485015260006104af0152610b486000f3fe608060405234801561001057600080fd5b50600436106100625760003560e01c8063533dcca414610067578063715018a61461008f57806384b0196e146100995780638da5cb5b146100b4578063c0753076146100cf578063f2fde38b146100f2575b600080fd5b61007a61007536600461090c565b610105565b60405190151581526020015b60405180910390f35b610097610204565b005b6100a1610218565b60405161008697969594939291906109f1565b6000546040516001600160a01b039091168152602001610086565b61007a6100dd366004610a87565b60009081526003602052604090205460ff1690565b610097610100366004610aa0565b61025e565b604080518082019091526001600160a01b038416815260208101839052600090816101376101328361029c565b610315565b60008181526003602052604090205490915060ff16156101945760405162461bcd60e51b8152602060048201526013602482015272111a59d95cdd08185b1c9958591e481d5cd959606a1b60448201526064015b60405180910390fd5b60006101a08286610348565b9050866001600160a01b0316816001600160a01b0316146101f75760405162461bcd60e51b8152602060048201526011602482015270496e76616c6964207369676e617475726560781b604482015260640161018b565b5060019695505050505050565b61020c610372565b610216600061039f565b565b60006060806000806000606061022c6103ef565b610234610421565b60408051600080825260208201909252600f60f81b9b939a50919850469750309650945092509050565b610266610372565b6001600160a01b03811661029057604051631e4fbdf760e01b81526000600482015260240161018b565b6102998161039f565b50565b80516020808301518051908201206040516000936102f8937f8bd4b6ed26700279903baaf93f6f82e8d596ab9d6dfc28b0eba604829c2c800c939192019283526001600160a01b03919091166020830152604082015260600190565b604051602081830303815290604052805190602001209050919050565b600061034261032261044e565b8360405161190160f01b8152600281019290925260228201526042902090565b92915050565b6000806000806103588686610579565b92509250925061036882826105c6565b5090949350505050565b6000546001600160a01b031633146102165760405163118cdaa760e01b815233600482015260240161018b565b600080546001600160a01b038381166001600160a01b0319831681178455604051919092169283917f8be0079c531659141344cd1fd0a4f28419497f9722a3daafe3b4186f6b6457e09190a35050565b606061041c7f00000000000000000000000000000000000000000000000000000000000000006001610683565b905090565b606061041c7f00000000000000000000000000000000000000000000000000000000000000006002610683565b6000306001600160a01b037f0000000000000000000000000000000000000000000000000000000000000000161480156104a757507f000000000000000000000000000000000000000000000000000000000000000046145b156104d157507f000000000000000000000000000000000000000000000000000000000000000090565b61041c604080517f8b73c3c69bb8fe3d512ecc4cf759cc79239f7b179b0ffacaa9a75d522b39400f60208201527f0000000000000000000000000000000000000000000000000000000000000000918101919091527f000000000000000000000000000000000000000000000000000000000000000060608201524660808201523060a082015260009060c00160405160208183030381529060405280519060200120905090565b600080600083516041036105b35760208401516040850151606086015160001a6105a58882858561072e565b9550955095505050506105bf565b50508151600091506002905b9250925092565b60008260038111156105da576105da610ac2565b036105e3575050565b60018260038111156105f7576105f7610ac2565b036106155760405163f645eedf60e01b815260040160405180910390fd5b600282600381111561062957610629610ac2565b0361064a5760405163fce698f760e01b81526004810182905260240161018b565b600382600381111561065e5761065e610ac2565b0361067f576040516335e2f38360e21b81526004810182905260240161018b565b5050565b606060ff831461069d57610696836107fd565b9050610342565b8180546106a990610ad8565b80601f01602080910402602001604051908101604052809291908181526020018280546106d590610ad8565b80156107225780601f106106f757610100808354040283529160200191610722565b820191906000526020600020905b81548152906001019060200180831161070557829003601f168201915b50505050509050610342565b600080807f7fffffffffffffffffffffffffffffff5d576e7357a4501ddfe92f46681b20a084111561076957506000915060039050826107f3565b604080516000808252602082018084528a905260ff891692820192909252606081018790526080810186905260019060a0016020604051602081039080840390855afa1580156107bd573d6000803e3d6000fd5b5050604051601f1901519150506001600160a01b0381166107e9575060009250600191508290506107f3565b9250600091508190505b9450945094915050565b6060600061080a8361083c565b604080516020808252818301909252919250600091906020820181803683375050509182525060208101929092525090565b600060ff8216601f81111561034257604051632cd44ac360e21b815260040160405180910390fd5b80356001600160a01b038116811461087b57600080fd5b919050565b634e487b7160e01b600052604160045260246000fd5b600067ffffffffffffffff808411156108b1576108b1610880565b604051601f8501601f19908116603f011681019082821181831017156108d9576108d9610880565b816040528093508581528686860111156108f257600080fd5b858560208301376000602087830101525050509392505050565b60008060006060848603121561092157600080fd5b61092a84610864565b9250602084013567ffffffffffffffff8082111561094757600080fd5b818601915086601f83011261095b57600080fd5b61096a87833560208501610896565b9350604086013591508082111561098057600080fd5b508401601f8101861361099257600080fd5b6109a186823560208401610896565b9150509250925092565b6000815180845260005b818110156109d1576020818501810151868301820152016109b5565b506000602082860101526020601f19601f83011685010191505092915050565b60ff60f81b881681526000602060e081840152610a1160e084018a6109ab565b8381036040850152610a23818a6109ab565b606085018990526001600160a01b038816608086015260a0850187905284810360c0860152855180825283870192509083019060005b81811015610a7557835183529284019291840191600101610a59565b50909c9b505050505050505050505050565b600060208284031215610a9957600080fd5b5035919050565b600060208284031215610ab257600080fd5b610abb82610864565b9392505050565b634e487b7160e01b600052602160045260246000fd5b600181811c90821680610aec57607f821691505b602082108103610b0c57634e487b7160e01b600052602260045260246000fd5b5091905056fea26469706673582212208885a98e27bf73ed5814eec7bd9e711001c1092f687eaf7e7323b21e0f8c9ef464736f6c63430008140033",
  "devdoc": {
    "errors": {
      "ECDSAInvalidSignature()": [
        {
          "details": "The signature derives the `address(0)`."
        }
      ],
      "ECDSAInvalidSignatureLength(uint256)": [
        {
          "details": "The signature has an invalid length."
        }
      ],
      "ECDSAInvalidSignatureS(bytes32)": [
        {
          "details": "The signature has an S value that is in the upper half order."
        }
      ],
      "OwnableInvalidOwner(address)": [
        {
          "details": "The owner is not a valid owner account. (eg. `address(0)`)"
        }
      ],
      "OwnableUnauthorizedAccount(address)": [
        {
          "details": "The caller account is not authorized to perform an operation."
        }
      ]
    },
    "events": {
      "EIP712DomainChanged()": {
        "details": "MAY be emitted to signal that the domain could have changed."
      }
    },
    "kind": "dev",
    "methods": {
      "eip712Domain()": {
        "details": "See {IERC-5267}."
      },
      "owner()": {
        "details": "Returns the address of the current owner."
      },
      "renounceOwnership()": {
        "details": "Leaves the contract without owner. It will not be possible to call `onlyOwner` functions. Can only be called by the current owner. NOTE: Renouncing ownership will leave the contract without an owner, thereby disabling any functionality that is only available to the owner."
      },
      "transferOwnership(address)": {
        "details": "Transfers ownership of the contract to a new account (`newOwner`). Can only be called by the current owner."
      }
    },
    "version": 1
  },
  "userdoc": {
    "kind": "user",
    "methods": {},
    "version": 1
  },
  "storageLayout": {
    "storage": [
      {
        "astId": 8,
        "contract": "contracts/SignatureManager.sol:SignatureManager",
        "label": "_owner",
        "offset": 0,
        "slot": "0",
        "type": "t_address"
      },
      {
        "astId": 3563,
        "contract": "contracts/SignatureManager.sol:SignatureManager",
        "label": "_nameFallback",
        "offset": 0,
        "slot": "1",
        "type": "t_string_storage"
      },
      {
        "astId": 3565,
        "contract": "contracts/SignatureManager.sol:SignatureManager",
        "label": "_versionFallback",
        "offset": 0,
        "slot": "2",
        "type": "t_string_storage"
      },
      {
        "astId": 8047,
        "contract": "contracts/SignatureManager.sol:SignatureManager",
        "label": "usedDigests",
        "offset": 0,
        "slot": "3",
        "type": "t_mapping(t_bytes32,t_bool)"
      }
    ],
    "types": {
      "t_address": {
        "encoding": "inplace",
        "label": "address",
        "numberOfBytes": "20"
      },
      "t_bool": {
        "encoding": "inplace",
        "label": "bool",
        "numberOfBytes": "1"
      },
      "t_bytes32": {
        "encoding": "inplace",
        "label": "bytes32",
        "numberOfBytes": "32"
      },
      "t_mapping(t_bytes32,t_bool)": {
        "encoding": "mapping",
        "key": "t_bytes32",
        "label": "mapping(bytes32 => bool)",
        "numberOfBytes": "32",
        "value": "t_bool"
      },
      "t_string_storage": {
        "encoding": "bytes",
        "label": "string",
        "numberOfBytes": "32"
      }
    }
  }
}