{
  "address": "0x6fb8e247F346960D06519Fd19c3C83427C0a61D4",
  "abi": [
    {
      "inputs": [
        {
          "internalType": "address",
          "name": "_feeRecipient",
          "type": "address"
        },
        {
          "internalType": "address",
          "name": "accessManagerAddress",
          "type": "address"
        }
      ],
      "stateMutability": "nonpayable",
      "type": "constructor"
    },
    {
      "inputs": [
        {
          "internalType": "address",
          "name": "owner",
          "type": "address"
        }
      ],
      "name": "OwnableInvalidOwner",
      "type": "error"
    },
    {
      "inputs": [
        {
          "internalType": "address",
          "name": "account",
          "type": "address"
        }
      ],
      "name": "OwnableUnauthorizedAccount",
      "type": "error"
    },
    {
      "inputs": [],
      "name": "ReentrancyGuardReentrantCall",
      "type": "error"
    },
    {
      "inputs": [
        {
          "internalType": "address",
          "name": "token",
          "type": "address"
        }
      ],
      "name": "SafeERC20FailedOperation",
      "type": "error"
    },
    {
      "anonymous": false,
      "inputs": [
        {
          "indexed": true,
          "internalType": "address",
          "name": "user",
          "type": "address"
        },
        {
          "indexed": false,
          "internalType": "uint256",
          "name": "amount",
          "type": "uint256"
        }
      ],
      "name": "DepositETH",
      "type": "event"
    },
    {
      "anonymous": false,
      "inputs": [
        {
          "indexed": true,
          "internalType": "address",
          "name": "user",
          "type": "address"
        },
        {
          "indexed": true,
          "internalType": "address",
          "name": "token",
          "type": "address"
        },
        {
          "indexed": false,
          "internalType": "uint256",
          "name": "amount",
          "type": "uint256"
        }
      ],
      "name": "DepositToken",
      "type": "event"
    },
    {
      "anonymous": false,
      "inputs": [
        {
          "indexed": true,
          "internalType": "address",
          "name": "previousOwner",
          "type": "address"
        },
        {
          "indexed": true,
          "internalType": "address",
          "name": "newOwner",
          "type": "address"
        }
      ],
      "name": "OwnershipTransferred",
      "type": "event"
    },
    {
      "anonymous": false,
      "inputs": [
        {
          "indexed": false,
          "internalType": "uint256",
          "name": "oldFeePercent",
          "type": "uint256"
        },
        {
          "indexed": false,
          "internalType": "uint256",
          "name": "newFeePercent",
          "type": "uint256"
        },
        {
          "indexed": false,
          "internalType": "address",
          "name": "oldRecipient",
          "type": "address"
        },
        {
          "indexed": false,
          "internalType": "address",
          "name": "newRecipient",
          "type": "address"
        }
      ],
      "name": "PlatformConfigurationUpdated",
      "type": "event"
    },
    {
      "anonymous": false,
      "inputs": [
        {
          "indexed": true,
          "internalType": "address",
          "name": "newSpender",
          "type": "address"
        }
      ],
      "name": "SpenderAuthorized",
      "type": "event"
    },
    {
      "anonymous": false,
      "inputs": [
        {
          "indexed": true,
          "internalType": "address",
          "name": "user",
          "type": "address"
        },
        {
          "indexed": false,
          "internalType": "uint256",
          "name": "amount",
          "type": "uint256"
        }
      ],
      "name": "WithdrawETH",
      "type": "event"
    },
    {
      "anonymous": false,
      "inputs": [
        {
          "indexed": true,
          "internalType": "address",
          "name": "user",
          "type": "address"
        },
        {
          "indexed": true,
          "internalType": "address",
          "name": "token",
          "type": "address"
        },
        {
          "indexed": false,
          "internalType": "uint256",
          "name": "amount",
          "type": "uint256"
        }
      ],
      "name": "WithdrawToken",
      "type": "event"
    },
    {
      "inputs": [],
      "name": "accessManager",
      "outputs": [
        {
          "internalType": "contract IAccessManager",
          "name": "",
          "type": "address"
        }
      ],
      "stateMutability": "view",
      "type": "function"
    },
    {
      "inputs": [
        {
          "internalType": "address",
          "name": "newSpender",
          "type": "address"
        }
      ],
      "name": "authorizeSpender",
      "outputs": [],
      "stateMutability": "nonpayable",
      "type": "function"
    },
    {
      "inputs": [],
      "name": "authorizedSpender",
      "outputs": [
        {
          "internalType": "address",
          "name": "",
          "type": "address"
        }
      ],
      "stateMutability": "view",
      "type": "function"
    },
    {
      "inputs": [
        {
          "internalType": "uint256",
          "name": "amount",
          "type": "uint256"
        }
      ],
      "name": "calculateFee",
      "outputs": [
        {
          "internalType": "uint256",
          "name": "",
          "type": "uint256"
        }
      ],
      "stateMutability": "view",
      "type": "function"
    },
    {
      "inputs": [
        {
          "internalType": "address",
          "name": "user",
          "type": "address"
        }
      ],
      "name": "depositETH",
      "outputs": [],
      "stateMutability": "payable",
      "type": "function"
    },
    {
      "inputs": [
        {
          "internalType": "address",
          "name": "user",
          "type": "address"
        },
        {
          "internalType": "address",
          "name": "token",
          "type": "address"
        },
        {
          "internalType": "uint256",
          "name": "amount",
          "type": "uint256"
        }
      ],
      "name": "depositToken",
      "outputs": [],
      "stateMutability": "nonpayable",
      "type": "function"
    },
    {
      "inputs": [
        {
          "internalType": "address",
          "name": "",
          "type": "address"
        }
      ],
      "name": "ethBalances",
      "outputs": [
        {
          "internalType": "uint256",
          "name": "",
          "type": "uint256"
        }
      ],
      "stateMutability": "view",
      "type": "function"
    },
    {
      "inputs": [],
      "name": "feeRecipient",
      "outputs": [
        {
          "internalType": "address",
          "name": "",
          "type": "address"
        }
      ],
      "stateMutability": "view",
      "type": "function"
    },
    {
      "inputs": [],
      "name": "maxTokenListSize",
      "outputs": [
        {
          "internalType": "uint256",
          "name": "",
          "type": "uint256"
        }
      ],
      "stateMutability": "view",
      "type": "function"
    },
    {
      "inputs": [],
      "name": "owner",
      "outputs": [
        {
          "internalType": "address",
          "name": "",
          "type": "address"
        }
      ],
      "stateMutability": "view",
      "type": "function"
    },
    {
      "inputs": [],
      "name": "platformFeePercent",
      "outputs": [
        {
          "internalType": "uint256",
          "name": "",
          "type": "uint256"
        }
      ],
      "stateMutability": "view",
      "type": "function"
    },
    {
      "inputs": [],
      "name": "renounceOwnership",
      "outputs": [],
      "stateMutability": "nonpayable",
      "type": "function"
    },
    {
      "inputs": [
        {
          "internalType": "address",
          "name": "",
          "type": "address"
        },
        {
          "internalType": "address",
          "name": "",
          "type": "address"
        }
      ],
      "name": "tokenBalances",
      "outputs": [
        {
          "internalType": "uint256",
          "name": "",
          "type": "uint256"
        }
      ],
      "stateMutability": "view",
      "type": "function"
    },
    {
      "inputs": [
        {
          "internalType": "address",
          "name": "newOwner",
          "type": "address"
        }
      ],
      "name": "transferOwnership",
      "outputs": [],
      "stateMutability": "nonpayable",
      "type": "function"
    },
    {
      "inputs": [
        {
          "internalType": "uint256",
          "name": "newFeePercent",
          "type": "uint256"
        },
        {
          "internalType": "address",
          "name": "newRecipient",
          "type": "address"
        }
      ],
      "name": "updatePlatformConfiguration",
      "outputs": [],
      "stateMutability": "nonpayable",
      "type": "function"
    },
    {
      "inputs": [
        {
          "internalType": "address",
          "name": "user",
          "type": "address"
        },
        {
          "internalType": "address",
          "name": "recipient",
          "type": "address"
        },
        {
          "internalType": "uint256",
          "name": "amount",
          "type": "uint256"
        }
      ],
      "name": "withdrawETH",
      "outputs": [],
      "stateMutability": "nonpayable",
      "type": "function"
    },
    {
      "inputs": [
        {
          "internalType": "address",
          "name": "user",
          "type": "address"
        },
        {
          "internalType": "address",
          "name": "recipient",
          "type": "address"
        },
        {
          "internalType": "address",
          "name": "token",
          "type": "address"
        },
        {
          "internalType": "uint256",
          "name": "amount",
          "type": "uint256"
        }
      ],
      "name": "withdrawToken",
      "outputs": [],
      "stateMutability": "nonpayable",
      "type": "function"
    }
  ],
  "transactionHash": "0x85f4b058b0d90367127375d0635a73ef45e59b9ca3c171d0ab6b92deca22481e",
  "args": [
    "0x1018156dF390667aA90147a2Bbb993c3833ECea7",
    "0x05765D29F2E0FA54D5e4EB06C7A95f28a6eB142e"
  ],
  "numDeployments": 1,
  "solcInputHash": "873d67caaf006e41396d2fc6cc8475d8",
  "bytecode": "0x6080604052600160065560326007553480156200001b57600080fd5b506040516200149e3803806200149e8339810160408190526200003e916200016f565b33806200006657604051631e4fbdf760e01b8152600060048201526024015b60405180910390fd5b620000718162000102565b50600180556001600160a01b038216620000c05760405162461bcd60e51b815260206004820152600f60248201526e115c9c8e9a5b9d985b1a5908185919608a1b60448201526064016200005d565b600980546001600160a01b039384166001600160a01b0319918216179091556005805492909316918116919091179091556008805490911633179055620001a7565b600080546001600160a01b038381166001600160a01b0319831681178455604051919092169283917f8be0079c531659141344cd1fd0a4f28419497f9722a3daafe3b4186f6b6457e09190a35050565b80516001600160a01b03811681146200016a57600080fd5b919050565b600080604083850312156200018357600080fd5b6200018e8362000152565b91506200019e6020840162000152565b90509250929050565b6112e780620001b76000396000f3fe6080604052600436106100fe5760003560e01c8063837c57a01161009557806399a5d7471161006457806399a5d747146102a7578063e7137dbf146102c7578063f2fde38b146102e7578063fb0f97a814610307578063fdcb60681461032757600080fd5b8063837c57a01461023d5780638c639a851461025d5780638da5cb5b1461027357806391751faa1461029157600080fd5b80633cfba0e3116100d15780633cfba0e31461019557806346904840146101d05780634dbf6c5a146101f0578063715018a61461022857600080fd5b806315356b4f1461010357806321754d9e146101405780632b353fbe146101625780632d2da80614610182575b600080fd5b34801561010f57600080fd5b50600854610123906001600160a01b031681565b6040516001600160a01b0390911681526020015b60405180910390f35b34801561014c57600080fd5b5061016061015b3660046110b7565b610347565b005b34801561016e57600080fd5b5061016061017d366004611108565b6106e8565b610160610190366004611108565b610786565b3480156101a157600080fd5b506101c26101b0366004611108565b60026020526000908152604090205481565b604051908152602001610137565b3480156101dc57600080fd5b50600954610123906001600160a01b031681565b3480156101fc57600080fd5b506101c261020b36600461112c565b600360209081526000928352604080842090915290825290205481565b34801561023457600080fd5b506101606107f4565b34801561024957600080fd5b50610160610258366004611165565b610808565b34801561026957600080fd5b506101c260065481565b34801561027f57600080fd5b506000546001600160a01b0316610123565b34801561029d57600080fd5b506101c260075481565b3480156102b357600080fd5b506101c26102c236600461118a565b6109f6565b3480156102d357600080fd5b506101606102e23660046111a3565b610a18565b3480156102f357600080fd5b50610160610302366004611108565b610bfb565b34801561031357600080fd5b506101606103223660046111a3565b610c39565b34801561033357600080fd5b50600554610123906001600160a01b031681565b6008546001600160a01b031633146103995760405162461bcd60e51b815260206004820152601060248201526f115c9c8e955b985d5d1a1bdc9a5e995960821b60448201526064015b60405180910390fd5b6103a1610ef2565b6001600160a01b0382166103ef5760405162461bcd60e51b8152602060048201526015602482015274496e76616c696420746f6b656e206164647265737360581b6044820152606401610390565b6001600160a01b03841661040257600080fd5b6001600160a01b03831661041557600080fd5b600060646006548361042791906111fa565b6104319190611211565b9050600061043f8284611233565b6001600160a01b038088166000908152600360209081526040808320938916835292905220549091508311156104b75760405162461bcd60e51b815260206004820152601f60248201527f4572723a776974686472617720746f6b656e20696e73756666696369656e74006044820152606401610390565b6001600160a01b038087166000908152600360209081526040808320938816835292905290812080548592906104ee908490611233565b90915550506009546001600160a01b0390811660009081526003602090815260408083209388168352929052908120805484929061052d908490611246565b9091555050604051636eb1769f60e11b81523360048201523060248201526000906001600160a01b0386169063dd62ed3e90604401602060405180830381865afa15801561057f573d6000803e3d6000fd5b505050506040513d601f19601f820116820180604052508101906105a39190611259565b9050838110156106755760405163095ea7b360e01b8152306004820152602481018590526001600160a01b0386169063095ea7b3906044016020604051808303816000875af11580156105fa573d6000803e3d6000fd5b505050506040513d601f19601f8201168201806040525081019061061e9190611272565b6106755760405162461bcd60e51b815260206004820152602260248201527f417070726f76616c20666f7220746f6b656e207472616e73666572206661696c604482015261195960f21b6064820152608401610390565b6106896001600160a01b0386168784610f1c565b846001600160a01b0316876001600160a01b03167f037238854fe57fbf51f09946f854fc3916fe83938d6521f09bd05463839f1304866040516106ce91815260200190565b60405180910390a35050506106e260018055565b50505050565b6106f0610f7b565b6001600160a01b03811661073c5760405162461bcd60e51b815260206004820152601360248201527222b9391d24b73b30b634b21039b832b73232b960691b6044820152606401610390565b600880546001600160a01b0319166001600160a01b0383169081179091556040517f056a33a56b1841995742577bb460d5ab4ffe65bb1d6106a329fdc532ae9a268890600090a250565b6001600160a01b038116600090815260026020526040812080543492906107ae908490611246565b90915550506040513481526001600160a01b038216907fced5d8bf10823804603bba066e4f53aa6e8f6f4be68bf0114cf7a0e52183e4e99060200160405180910390a250565b6107fc610f7b565b6108066000610fa8565b565b600560009054906101000a90046001600160a01b03166001600160a01b0316638da5cb5b6040518163ffffffff1660e01b8152600401602060405180830381865afa15801561085b573d6000803e3d6000fd5b505050506040513d601f19601f8201168201806040525081019061087f9190611294565b6001600160a01b0316336001600160a01b0316146108eb5760405162461bcd60e51b815260206004820152602360248201527f4f6e6c79206f776e65722063616e2075706461746520636f6e6669677572617460448201526234b7b760e91b6064820152608401610390565b606482111561092c5760405162461bcd60e51b815260206004820152600d60248201526c115c9c8e919959481b1a5b5a5d609a1b6044820152606401610390565b6001600160a01b03811661097b5760405162461bcd60e51b8152602060048201526016602482015275115c9c8e9d5c19185d19481a5b9d985b1a590818591960521b6044820152606401610390565b6006805460098054928590556001600160a01b031983166001600160a01b0385811691821790925560408051848152602081018890529290941693820184905260608201529091907f171f824867cee0cab24330cdc1601f6f64f95fac1ec03a325e5975e07bfb2fdc9060800160405180910390a150505050565b6000606460065483610a0891906111fa565b610a129190611211565b92915050565b6008546001600160a01b03163314610a655760405162461bcd60e51b815260206004820152601060248201526f115c9c8e955b985d5d1a1bdc9a5e995960821b6044820152606401610390565b610a6d610ef2565b6000606460065483610a7f91906111fa565b610a899190611211565b90506000610a978284611233565b90506001600160a01b038516610aac57600080fd5b6001600160a01b038416610abf57600080fd5b6001600160a01b038516600090815260026020526040902054831115610b1a5760405162461bcd60e51b815260206004820152601060248201526f08ae4e474eed2e8d0c8e4c2ee40cae8d60831b6044820152606401610390565b6001600160a01b03851660009081526002602052604081208054859290610b42908490611233565b90915550506040516001600160a01b0385169082156108fc029083906000818181858888f19350505050158015610b7d573d6000803e3d6000fd5b506009546001600160a01b031660009081526002602052604081208054849290610ba8908490611246565b90915550506040518381526001600160a01b038616907f566e45b1c8057e725bf62796a7f1d37ae294393cab069725a09daddd1af98b799060200160405180910390a25050610bf660018055565b505050565b610c03610f7b565b6001600160a01b038116610c2d57604051631e4fbdf760e01b815260006004820152602401610390565b610c3681610fa8565b50565b6001600160a01b038216610c8f5760405162461bcd60e51b815260206004820152601960248201527f4572723a496e76616c696420746f6b656e2061646472657373000000000000006044820152606401610390565b60008111610cdf5760405162461bcd60e51b815260206004820181905260248201527f416d6f756e74206d7573742062652067726561746572207468616e207a65726f6044820152606401610390565b604051636eb1769f60e11b81526001600160a01b0384811660048301523060248301526000919084169063dd62ed3e90604401602060405180830381865afa158015610d2f573d6000803e3d6000fd5b505050506040513d601f19601f82011682018060405250810190610d539190611259565b905081811015610da55760405162461bcd60e51b815260206004820181905260248201527f4572723a496e73756666696369656e7420746f6b656e20616c6c6f77616e63656044820152606401610390565b610dba6001600160a01b038416333085610ff8565b3360009081526003602090815260408083206001600160a01b03871684529091528120549003610e74576007543360009081526004602052604090205410610e3b5760405162461bcd60e51b8152602060048201526014602482015273115c9c8e951bdad95b881b1a5cdd081b1a5b5a5d60621b6044820152606401610390565b3360009081526004602090815260408220805460018101825590835291200180546001600160a01b0319166001600160a01b0385161790555b3360009081526003602090815260408083206001600160a01b038716845290915281208054849290610ea7908490611246565b90915550506040518281526001600160a01b0384169033907f4b3f81827ede20c81afbf1bb77b954afcdcae24d391d99042310cb1d9210dd579060200160405180910390a350505050565b600260015403610f1557604051633ee5aeb560e01b815260040160405180910390fd5b6002600155565b6040516001600160a01b03838116602483015260448201839052610bf691859182169063a9059cbb906064015b604051602081830303815290604052915060e01b6020820180516001600160e01b038381831617835250505050611031565b6000546001600160a01b031633146108065760405163118cdaa760e01b8152336004820152602401610390565b600080546001600160a01b038381166001600160a01b0319831681178455604051919092169283917f8be0079c531659141344cd1fd0a4f28419497f9722a3daafe3b4186f6b6457e09190a35050565b6040516001600160a01b0384811660248301528381166044830152606482018390526106e29186918216906323b872dd90608401610f49565b600080602060008451602086016000885af180611054576040513d6000823e3d81fd5b50506000513d9150811561106c578060011415611079565b6001600160a01b0384163b155b156106e257604051635274afe760e01b81526001600160a01b0385166004820152602401610390565b6001600160a01b0381168114610c3657600080fd5b600080600080608085870312156110cd57600080fd5b84356110d8816110a2565b935060208501356110e8816110a2565b925060408501356110f8816110a2565b9396929550929360600135925050565b60006020828403121561111a57600080fd5b8135611125816110a2565b9392505050565b6000806040838503121561113f57600080fd5b823561114a816110a2565b9150602083013561115a816110a2565b809150509250929050565b6000806040838503121561117857600080fd5b82359150602083013561115a816110a2565b60006020828403121561119c57600080fd5b5035919050565b6000806000606084860312156111b857600080fd5b83356111c3816110a2565b925060208401356111d3816110a2565b929592945050506040919091013590565b634e487b7160e01b600052601160045260246000fd5b8082028115828204841417610a1257610a126111e4565b60008261122e57634e487b7160e01b600052601260045260246000fd5b500490565b81810381811115610a1257610a126111e4565b80820180821115610a1257610a126111e4565b60006020828403121561126b57600080fd5b5051919050565b60006020828403121561128457600080fd5b8151801515811461112557600080fd5b6000602082840312156112a657600080fd5b8151611125816110a256fea264697066735822122007145b321a2ddefb1ed6c7d0128abdc969043be262e7eea7bdf8d11beee3e82464736f6c63430008140033",
  "devdoc": {
    "errors": {
      "OwnableInvalidOwner(address)": [
        {
          "details": "The owner is not a valid owner account. (eg. `address(0)`)"
        }
      ],
      "OwnableUnauthorizedAccount(address)": [
        {
          "details": "The caller account is not authorized to perform an operation."
        }
      ],
      "ReentrancyGuardReentrantCall()": [
        {
          "details": "Unauthorized reentrant call."
        }
      ],
      "SafeERC20FailedOperation(address)": [
        {
          "details": "An operation with an ERC-20 token failed."
        }
      ]
    },
    "kind": "dev",
    "methods": {
      "owner()": {
        "details": "Returns the address of the current owner."
      },
      "renounceOwnership()": {
        "details": "Leaves the contract without owner. It will not be possible to call `onlyOwner` functions. Can only be called by the current owner. NOTE: Renouncing ownership will leave the contract without an owner, thereby disabling any functionality that is only available to the owner."
      },
      "transferOwnership(address)": {
        "details": "Transfers ownership of the contract to a new account (`newOwner`). Can only be called by the current owner."
      }
    },
    "version": 1
  },
  "userdoc": {
    "kind": "user",
    "methods": {},
    "version": 1
  },
  "storageLayout": {
    "storage": [
      {
        "astId": 8,
        "contract": "contracts/TokenManager.sol:TokenManager",
        "label": "_owner",
        "offset": 0,
        "slot": "0",
        "type": "t_address"
      },
      {
        "astId": 1048,
        "contract": "contracts/TokenManager.sol:TokenManager",
        "label": "_status",
        "offset": 0,
        "slot": "1",
        "type": "t_uint256"
      },
      {
        "astId": 1166,
        "contract": "contracts/TokenManager.sol:TokenManager",
        "label": "ethBalances",
        "offset": 0,
        "slot": "2",
        "type": "t_mapping(t_address,t_uint256)"
      },
      {
        "astId": 1172,
        "contract": "contracts/TokenManager.sol:TokenManager",
        "label": "tokenBalances",
        "offset": 0,
        "slot": "3",
        "type": "t_mapping(t_address,t_mapping(t_address,t_uint256))"
      },
      {
        "astId": 1177,
        "contract": "contracts/TokenManager.sol:TokenManager",
        "label": "userTokenList",
        "offset": 0,
        "slot": "4",
        "type": "t_mapping(t_address,t_array(t_address)dyn_storage)"
      },
      {
        "astId": 1180,
        "contract": "contracts/TokenManager.sol:TokenManager",
        "label": "accessManager",
        "offset": 0,
        "slot": "5",
        "type": "t_contract(IAccessManager)1147"
      },
      {
        "astId": 1183,
        "contract": "contracts/TokenManager.sol:TokenManager",
        "label": "platformFeePercent",
        "offset": 0,
        "slot": "6",
        "type": "t_uint256"
      },
      {
        "astId": 1186,
        "contract": "contracts/TokenManager.sol:TokenManager",
        "label": "maxTokenListSize",
        "offset": 0,
        "slot": "7",
        "type": "t_uint256"
      },
      {
        "astId": 1188,
        "contract": "contracts/TokenManager.sol:TokenManager",
        "label": "authorizedSpender",
        "offset": 0,
        "slot": "8",
        "type": "t_address"
      },
      {
        "astId": 1190,
        "contract": "contracts/TokenManager.sol:TokenManager",
        "label": "feeRecipient",
        "offset": 0,
        "slot": "9",
        "type": "t_address"
      }
    ],
    "types": {
      "t_address": {
        "encoding": "inplace",
        "label": "address",
        "numberOfBytes": "20"
      },
      "t_array(t_address)dyn_storage": {
        "base": "t_address",
        "encoding": "dynamic_array",
        "label": "address[]",
        "numberOfBytes": "32"
      },
      "t_contract(IAccessManager)1147": {
        "encoding": "inplace",
        "label": "contract IAccessManager",
        "numberOfBytes": "20"
      },
      "t_mapping(t_address,t_array(t_address)dyn_storage)": {
        "encoding": "mapping",
        "key": "t_address",
        "label": "mapping(address => address[])",
        "numberOfBytes": "32",
        "value": "t_array(t_address)dyn_storage"
      },
      "t_mapping(t_address,t_mapping(t_address,t_uint256))": {
        "encoding": "mapping",
        "key": "t_address",
        "label": "mapping(address => mapping(address => uint256))",
        "numberOfBytes": "32",
        "value": "t_mapping(t_address,t_uint256)"
      },
      "t_mapping(t_address,t_uint256)": {
        "encoding": "mapping",
        "key": "t_address",
        "label": "mapping(address => uint256)",
        "numberOfBytes": "32",
        "value": "t_uint256"
      },
      "t_uint256": {
        "encoding": "inplace",
        "label": "uint256",
        "numberOfBytes": "32"
      }
    }
  }
}